{
  "_format": "hh-sol-artifact-1",
  "contractName": "ODINNFT",
  "sourceName": "contracts/OdinNFT.sol",
  "abi": [
    {
      "inputs": [],
      "stateMutability": "nonpayable",
      "type": "constructor"
    },
    {
      "anonymous": false,
      "inputs": [
        {
          "indexed": true,
          "internalType": "address",
          "name": "owner",
          "type": "address"
        },
        {
          "indexed": true,
          "internalType": "address",
          "name": "approved",
          "type": "address"
        },
        {
          "indexed": true,
          "internalType": "uint256",
          "name": "tokenId",
          "type": "uint256"
        }
      ],
      "name": "Approval",
      "type": "event"
    },
    {
      "anonymous": false,
      "inputs": [
        {
          "indexed": true,
          "internalType": "address",
          "name": "owner",
          "type": "address"
        },
        {
          "indexed": true,
          "internalType": "address",
          "name": "operator",
          "type": "address"
        },
        {
          "indexed": false,
          "internalType": "bool",
          "name": "approved",
          "type": "bool"
        }
      ],
      "name": "ApprovalForAll",
      "type": "event"
    },
    {
      "anonymous": false,
      "inputs": [
        {
          "indexed": true,
          "internalType": "address",
          "name": "previousOwner",
          "type": "address"
        },
        {
          "indexed": true,
          "internalType": "address",
          "name": "newOwner",
          "type": "address"
        }
      ],
      "name": "OwnershipTransferred",
      "type": "event"
    },
    {
      "anonymous": false,
      "inputs": [
        {
          "indexed": true,
          "internalType": "address",
          "name": "from",
          "type": "address"
        },
        {
          "indexed": true,
          "internalType": "address",
          "name": "to",
          "type": "address"
        },
        {
          "indexed": true,
          "internalType": "uint256",
          "name": "tokenId",
          "type": "uint256"
        }
      ],
      "name": "Transfer",
      "type": "event"
    },
    {
      "inputs": [],
      "name": "MINT_PRICE",
      "outputs": [
        {
          "internalType": "uint256",
          "name": "",
          "type": "uint256"
        }
      ],
      "stateMutability": "view",
      "type": "function"
    },
    {
      "inputs": [
        {
          "internalType": "address",
          "name": "to",
          "type": "address"
        },
        {
          "internalType": "uint256",
          "name": "tokenId",
          "type": "uint256"
        }
      ],
      "name": "approve",
      "outputs": [],
      "stateMutability": "nonpayable",
      "type": "function"
    },
    {
      "inputs": [
        {
          "internalType": "address",
          "name": "_owner",
          "type": "address"
        }
      ],
      "name": "balanceOf",
      "outputs": [
        {
          "internalType": "uint256",
          "name": "",
          "type": "uint256"
        }
      ],
      "stateMutability": "view",
      "type": "function"
    },
    {
      "inputs": [
        {
          "internalType": "uint256",
          "name": "tokenId",
          "type": "uint256"
        }
      ],
      "name": "burn",
      "outputs": [],
      "stateMutability": "nonpayable",
      "type": "function"
    },
    {
      "inputs": [
        {
          "internalType": "address",
          "name": "_account",
          "type": "address"
        }
      ],
      "name": "checkAccountLevel",
      "outputs": [
        {
          "internalType": "uint256",
          "name": "",
          "type": "uint256"
        }
      ],
      "stateMutability": "view",
      "type": "function"
    },
    {
      "inputs": [
        {
          "internalType": "address",
          "name": "_account",
          "type": "address"
        }
      ],
      "name": "checkAccountLevels",
      "outputs": [
        {
          "internalType": "uint256[]",
          "name": "",
          "type": "uint256[]"
        }
      ],
      "stateMutability": "view",
      "type": "function"
    },
    {
      "inputs": [
        {
          "internalType": "uint256",
          "name": "tokenId",
          "type": "uint256"
        }
      ],
      "name": "getApproved",
      "outputs": [
        {
          "internalType": "address",
          "name": "",
          "type": "address"
        }
      ],
      "stateMutability": "view",
      "type": "function"
    },
    {
      "inputs": [
        {
          "internalType": "uint256",
          "name": "_id",
          "type": "uint256"
        }
      ],
      "name": "getTokenLevel",
      "outputs": [
        {
          "internalType": "uint256",
          "name": "",
          "type": "uint256"
        }
      ],
      "stateMutability": "view",
      "type": "function"
    },
    {
      "inputs": [
        {
          "internalType": "address",
          "name": "_owner",
          "type": "address"
        }
      ],
      "name": "getTokensOfOwner",
      "outputs": [
        {
          "internalType": "uint256[]",
          "name": "",
          "type": "uint256[]"
        }
      ],
      "stateMutability": "view",
      "type": "function"
    },
    {
      "inputs": [
        {
          "internalType": "address",
          "name": "owner",
          "type": "address"
        },
        {
          "internalType": "address",
          "name": "operator",
          "type": "address"
        }
      ],
      "name": "isApprovedForAll",
      "outputs": [
        {
          "internalType": "bool",
          "name": "",
          "type": "bool"
        }
      ],
      "stateMutability": "view",
      "type": "function"
    },
    {
      "inputs": [
        {
          "internalType": "uint256",
          "name": "_level",
          "type": "uint256"
        },
        {
          "internalType": "address",
          "name": "_to",
          "type": "address"
        }
      ],
      "name": "mint",
      "outputs": [
        {
          "internalType": "uint256",
          "name": "",
          "type": "uint256"
        }
      ],
      "stateMutability": "nonpayable",
      "type": "function"
    },
    {
      "inputs": [],
      "name": "name",
      "outputs": [
        {
          "internalType": "string",
          "name": "",
          "type": "string"
        }
      ],
      "stateMutability": "view",
      "type": "function"
    },
    {
      "inputs": [],
      "name": "owner",
      "outputs": [
        {
          "internalType": "address",
          "name": "",
          "type": "address"
        }
      ],
      "stateMutability": "view",
      "type": "function"
    },
    {
      "inputs": [
        {
          "internalType": "uint256",
          "name": "_id",
          "type": "uint256"
        }
      ],
      "name": "ownerOf",
      "outputs": [
        {
          "internalType": "address",
          "name": "",
          "type": "address"
        }
      ],
      "stateMutability": "view",
      "type": "function"
    },
    {
      "inputs": [],
      "name": "renounceOwnership",
      "outputs": [],
      "stateMutability": "nonpayable",
      "type": "function"
    },
    {
      "inputs": [
        {
          "internalType": "address",
          "name": "from",
          "type": "address"
        },
        {
          "internalType": "address",
          "name": "to",
          "type": "address"
        },
        {
          "internalType": "uint256",
          "name": "tokenId",
          "type": "uint256"
        }
      ],
      "name": "safeTransferFrom",
      "outputs": [],
      "stateMutability": "nonpayable",
      "type": "function"
    },
    {
      "inputs": [
        {
          "internalType": "address",
          "name": "from",
          "type": "address"
        },
        {
          "internalType": "address",
          "name": "to",
          "type": "address"
        },
        {
          "internalType": "uint256",
          "name": "tokenId",
          "type": "uint256"
        },
        {
          "internalType": "bytes",
          "name": "data",
          "type": "bytes"
        }
      ],
      "name": "safeTransferFrom",
      "outputs": [],
      "stateMutability": "nonpayable",
      "type": "function"
    },
    {
      "inputs": [
        {
          "internalType": "address",
          "name": "operator",
          "type": "address"
        },
        {
          "internalType": "bool",
          "name": "approved",
          "type": "bool"
        }
      ],
      "name": "setApprovalForAll",
      "outputs": [],
      "stateMutability": "nonpayable",
      "type": "function"
    },
    {
      "inputs": [
        {
          "internalType": "string",
          "name": "_baseTokenURI",
          "type": "string"
        }
      ],
      "name": "setBaseTokenURI",
      "outputs": [],
      "stateMutability": "nonpayable",
      "type": "function"
    },
    {
      "inputs": [
        {
          "internalType": "uint256",
          "name": "_tokenId",
          "type": "uint256"
        },
        {
          "internalType": "string",
          "name": "_tokenURI",
          "type": "string"
        }
      ],
      "name": "setTokenURI",
      "outputs": [],
      "stateMutability": "nonpayable",
      "type": "function"
    },
    {
      "inputs": [
        {
          "internalType": "bytes4",
          "name": "interfaceId",
          "type": "bytes4"
        }
      ],
      "name": "supportsInterface",
      "outputs": [
        {
          "internalType": "bool",
          "name": "",
          "type": "bool"
        }
      ],
      "stateMutability": "view",
      "type": "function"
    },
    {
      "inputs": [],
      "name": "symbol",
      "outputs": [
        {
          "internalType": "string",
          "name": "",
          "type": "string"
        }
      ],
      "stateMutability": "view",
      "type": "function"
    },
    {
      "inputs": [
        {
          "internalType": "uint256",
          "name": "index",
          "type": "uint256"
        }
      ],
      "name": "tokenByIndex",
      "outputs": [
        {
          "internalType": "uint256",
          "name": "",
          "type": "uint256"
        }
      ],
      "stateMutability": "view",
      "type": "function"
    },
    {
      "inputs": [
        {
          "internalType": "address",
          "name": "owner",
          "type": "address"
        },
        {
          "internalType": "uint256",
          "name": "index",
          "type": "uint256"
        }
      ],
      "name": "tokenOfOwnerByIndex",
      "outputs": [
        {
          "internalType": "uint256",
          "name": "",
          "type": "uint256"
        }
      ],
      "stateMutability": "view",
      "type": "function"
    },
    {
      "inputs": [
        {
          "internalType": "uint256",
          "name": "tokenId",
          "type": "uint256"
        }
      ],
      "name": "tokenURI",
      "outputs": [
        {
          "internalType": "string",
          "name": "",
          "type": "string"
        }
      ],
      "stateMutability": "view",
      "type": "function"
    },
    {
      "inputs": [],
      "name": "totalSupply",
      "outputs": [
        {
          "internalType": "uint256",
          "name": "",
          "type": "uint256"
        }
      ],
      "stateMutability": "view",
      "type": "function"
    },
    {
      "inputs": [
        {
          "internalType": "address",
          "name": "from",
          "type": "address"
        },
        {
          "internalType": "address",
          "name": "to",
          "type": "address"
        },
        {
          "internalType": "uint256",
          "name": "tokenId",
          "type": "uint256"
        }
      ],
      "name": "transferFrom",
      "outputs": [],
      "stateMutability": "nonpayable",
      "type": "function"
    },
    {
      "inputs": [
        {
          "internalType": "address",
          "name": "newOwner",
          "type": "address"
        }
      ],
      "name": "transferOwnership",
      "outputs": [],
      "stateMutability": "nonpayable",
      "type": "function"
    }
  ],
  "bytecode": "0x60806040526000600d553480156200001657600080fd5b50604080518082018252600781526613d91a5b93919560ca1b60208083019182528351808501909452600684526513d11253939560d21b9084015281519192916200006491600091620000f3565b5080516200007a906001906020840190620000f3565b50505062000097620000916200009d60201b60201c565b620000a1565b620001d6565b3390565b600b80546001600160a01b038381166001600160a01b0319831681179093556040519116919082907f8be0079c531659141344cd1fd0a4f28419497f9722a3daafe3b4186f6b6457e090600090a35050565b828054620001019062000199565b90600052602060002090601f01602090048101928262000125576000855562000170565b82601f106200014057805160ff191683800117855562000170565b8280016001018555821562000170579182015b828111156200017057825182559160200191906001019062000153565b506200017e92915062000182565b5090565b5b808211156200017e576000815560010162000183565b600181811c90821680620001ae57607f821691505b60208210811415620001d057634e487b7160e01b600052602260045260246000fd5b50919050565b6122ea80620001e66000396000f3fe608060405234801561001057600080fd5b50600436106101c45760003560e01c8063664315e8116100f9578063b88d4fde11610097578063d011645c11610071578063d011645c146103b5578063df611083146103c8578063e985e9c5146103db578063f2fde38b1461041757600080fd5b8063b88d4fde14610381578063c002d23d14610394578063c87b56dd146103a257600080fd5b80638da5cb5b116100d35780638da5cb5b1461034257806394bf804d1461035357806395d89b4114610366578063a22cb4651461036e57600080fd5b8063664315e81461031457806370a0823114610327578063715018a61461033a57600080fd5b80632f745c591161016657806342966c681161014057806342966c68146102bb5780634f6ccce7146102ce5780635de6dc55146102e15780636352211e1461030157600080fd5b80632f745c591461028257806330176e131461029557806342842e0e146102a857600080fd5b8063095ea7b3116101a2578063095ea7b314610231578063162094c41461024657806318160ddd1461025957806323b872dd1461026f57600080fd5b806301ffc9a7146101c957806306fdde03146101f1578063081812fc14610206575b600080fd5b6101dc6101d7366004611ed6565b61042a565b60405190151581526020015b60405180910390f35b6101f961043b565b6040516101e891906120a4565b610219610214366004611f45565b6104cd565b6040516001600160a01b0390911681526020016101e8565b61024461023f366004611eac565b6104f4565b005b610244610254366004611f81565b61060f565b610261610697565b6040519081526020016101e8565b61024461027d366004611db8565b6106a7565b610261610290366004611eac565b6106d9565b6102446102a3366004611f10565b61076f565b6102446102b6366004611db8565b61078e565b6102446102c9366004611f45565b6107a9565b6102616102dc366004611f45565b6107da565b6102f46102ef366004611d6a565b61086d565b6040516101e89190612060565b61021961030f366004611f45565b61090f565b6102f4610322366004611d6a565b61091a565b610261610335366004611d6a565b610a0c565b610244610a17565b600b546001600160a01b0316610219565b610261610361366004611f5e565b610a2b565b6101f9610a65565b61024461037c366004611e70565b610a74565b61024461038f366004611df4565b610a7f565b6102616611c37937e0800081565b6101f96103b0366004611f45565b610ab7565b6102616103c3366004611f45565b610ac2565b6102616103d6366004611d6a565b610b1b565b6101dc6103e9366004611d85565b6001600160a01b03918216600090815260056020908152604080832093909416825291909152205460ff1690565b610244610425366004611d6a565b610d12565b600061043582610d88565b92915050565b60606000805461044a906121c6565b80601f0160208091040260200160405190810160405280929190818152602001828054610476906121c6565b80156104c35780601f10610498576101008083540402835291602001916104c3565b820191906000526020600020905b8154815290600101906020018083116104a657829003601f168201915b5050505050905090565b60006104d882610dad565b506000908152600460205260409020546001600160a01b031690565b60006104ff82610e0c565b9050806001600160a01b0316836001600160a01b031614156105725760405162461bcd60e51b815260206004820152602160248201527f4552433732313a20617070726f76616c20746f2063757272656e74206f776e656044820152603960f91b60648201526084015b60405180910390fd5b336001600160a01b038216148061058e575061058e81336103e9565b6106005760405162461bcd60e51b815260206004820152603e60248201527f4552433732313a20617070726f76652063616c6c6572206973206e6f7420746f60448201527f6b656e206f776e6572206e6f7220617070726f76656420666f7220616c6c00006064820152608401610569565b61060a8383610e6c565b505050565b6106188261090f565b6001600160a01b0316336001600160a01b0316146106785760405162461bcd60e51b815260206004820152601760248201527f556e61626c6520746f2073657420746f6b656e205552490000000000000000006044820152606401610569565b6000828152600f60209081526040909120825161060a92840190611be9565b60006106a260085490565b905090565b6106b2335b82610eda565b6106ce5760405162461bcd60e51b815260040161056990612109565b61060a838383610f59565b60006106e483611100565b82106107465760405162461bcd60e51b815260206004820152602b60248201527f455243373231456e756d657261626c653a206f776e657220696e646578206f7560448201526a74206f6620626f756e647360a81b6064820152608401610569565b506001600160a01b03919091166000908152600660209081526040808320938352929052205490565b610777611186565b805161078a90600c906020840190611be9565b5050565b61060a83838360405180602001604052806000815250610a7f565b6107b2336106ac565b6107ce5760405162461bcd60e51b815260040161056990612109565b6107d7816111e0565b50565b60006107e560085490565b82106108485760405162461bcd60e51b815260206004820152602c60248201527f455243373231456e756d657261626c653a20676c6f62616c20696e646578206f60448201526b7574206f6620626f756e647360a01b6064820152608401610569565b6008828154811061085b5761085b612272565b90600052602060002001549050919050565b6060600061087a83610a0c565b905060008167ffffffffffffffff81111561089757610897612288565b6040519080825280602002602001820160405280156108c0578160200160208202803683370190505b50905060005b82811015610907576108d885826106d9565b8282815181106108ea576108ea612272565b6020908102919091010152806108ff81612201565b9150506108c6565b509392505050565b600061043582610e0c565b6060600061092783610a0c565b116109615760405162461bcd60e51b815260206004820152600a6024820152694e6f2062616c616e636560b01b6044820152606401610569565b600061096c83610a0c565b905060008167ffffffffffffffff81111561098957610989612288565b6040519080825280602002602001820160405280156109b2578160200160208202803683370190505b50905060005b8281101561090757600e60006109ce87846106d9565b8152602001908152602001600020548282815181106109ef576109ef612272565b602090810291909101015280610a0481612201565b9150506109b8565b600061043582611100565b610a1f611186565b610a2960006111e9565b565b600d8054600091819083610a3e83612201565b90915550506000818152600e60205260409020849055610a5e838261123b565b9392505050565b60606001805461044a906121c6565b61078a338383611255565b610a893383610eda565b610aa55760405162461bcd60e51b815260040161056990612109565b610ab184848484611324565b50505050565b606061043582611357565b6000600d548210610b085760405162461bcd60e51b815260206004820152601060248201526f4e6f6e20657869737420746f6b656e2160801b6044820152606401610569565b506000908152600e602052604090205490565b60008080610b288461086d565b90506000806000806000805b8651811015610cd55787600e6000898481518110610b5457610b54612272565b60200260200101518152602001908152602001600020541115610ba157600e6000888381518110610b8757610b87612272565b602002602001015181526020019081526020016000205497505b600e6000888381518110610bb757610bb7612272565b602002602001015181526020019081526020016000205460011415610bdb57600195505b600e6000888381518110610bf157610bf1612272565b602002602001015181526020019081526020016000205460021415610c1557600194505b600e6000888381518110610c2b57610c2b612272565b602002602001015181526020019081526020016000205460031415610c4f57600193505b600e6000888381518110610c6557610c65612272565b602002602001015181526020019081526020016000205460041415610c8957600192505b600e6000888381518110610c9f57610c9f612272565b602002602001015181526020019081526020016000205460051415610cc357600191505b80610ccd81612201565b915050610b34565b50848015610ce05750835b8015610ce95750825b8015610cf25750815b8015610cfb5750805b15610d0557600696505b5094979650505050505050565b610d1a611186565b6001600160a01b038116610d7f5760405162461bcd60e51b815260206004820152602660248201527f4f776e61626c653a206e6577206f776e657220697320746865207a65726f206160448201526564647265737360d01b6064820152608401610569565b6107d7816111e9565b60006001600160e01b0319821663780e9d6360e01b1480610435575061043582611460565b6000818152600260205260409020546001600160a01b03166107d75760405162461bcd60e51b8152602060048201526018602482015277115490cdcc8c4e881a5b9d985b1a59081d1bdad95b88125160421b6044820152606401610569565b6000818152600260205260408120546001600160a01b0316806104355760405162461bcd60e51b8152602060048201526018602482015277115490cdcc8c4e881a5b9d985b1a59081d1bdad95b88125160421b6044820152606401610569565b600081815260046020526040902080546001600160a01b0319166001600160a01b0384169081179091558190610ea182610e0c565b6001600160a01b03167f8c5be1e5ebec7d5bd14f71427d1e84f3dd0314c0f7b2291e5b200ac8c7c3b92560405160405180910390a45050565b600080610ee683610e0c565b9050806001600160a01b0316846001600160a01b03161480610f2d57506001600160a01b0380821660009081526005602090815260408083209388168352929052205460ff165b80610f515750836001600160a01b0316610f46846104cd565b6001600160a01b0316145b949350505050565b826001600160a01b0316610f6c82610e0c565b6001600160a01b031614610fd05760405162461bcd60e51b815260206004820152602560248201527f4552433732313a207472616e736665722066726f6d20696e636f72726563742060448201526437bbb732b960d91b6064820152608401610569565b6001600160a01b0382166110325760405162461bcd60e51b8152602060048201526024808201527f4552433732313a207472616e7366657220746f20746865207a65726f206164646044820152637265737360e01b6064820152608401610569565b61103d8383836114b0565b611048600082610e6c565b6001600160a01b0383166000908152600360205260408120805460019290611071908490612183565b90915550506001600160a01b038216600090815260036020526040812080546001929061109f908490612157565b909155505060008181526002602052604080822080546001600160a01b0319166001600160a01b0386811691821790925591518493918716917fddf252ad1be2c89b69c2b068fc378daa952ba7f163c4a11628f55a4df523b3ef91a4505050565b60006001600160a01b03821661116a5760405162461bcd60e51b815260206004820152602960248201527f4552433732313a2061646472657373207a65726f206973206e6f7420612076616044820152683634b21037bbb732b960b91b6064820152608401610569565b506001600160a01b031660009081526003602052604090205490565b600b546001600160a01b03163314610a295760405162461bcd60e51b815260206004820181905260248201527f4f776e61626c653a2063616c6c6572206973206e6f7420746865206f776e65726044820152606401610569565b6107d7816114bb565b600b80546001600160a01b038381166001600160a01b0319831681179093556040519116919082907f8be0079c531659141344cd1fd0a4f28419497f9722a3daafe3b4186f6b6457e090600090a35050565b61078a8282604051806020016040528060008152506114fb565b816001600160a01b0316836001600160a01b031614156112b75760405162461bcd60e51b815260206004820152601960248201527f4552433732313a20617070726f766520746f2063616c6c6572000000000000006044820152606401610569565b6001600160a01b03838116600081815260056020908152604080832094871680845294825291829020805460ff191686151590811790915591519182527f17307eab39ab6107e8899845ad3d59bd9653f200f220920489ca2b5937696c31910160405180910390a3505050565b61132f848484610f59565b61133b8484848461152e565b610ab15760405162461bcd60e51b8152600401610569906120b7565b606061136282610dad565b6000828152600a60205260408120805461137b906121c6565b80601f01602080910402602001604051908101604052809291908181526020018280546113a7906121c6565b80156113f45780601f106113c9576101008083540402835291602001916113f4565b820191906000526020600020905b8154815290600101906020018083116113d757829003601f168201915b50505050509050600061141260408051602081019091526000815290565b9050805160001415611425575092915050565b81511561145757808260405160200161143f929190611ff4565b60405160208183030381529060405292505050919050565b610f518461163b565b60006001600160e01b031982166380ac58cd60e01b148061149157506001600160e01b03198216635b5e139f60e01b145b8061043557506301ffc9a760e01b6001600160e01b0319831614610435565b61060a8383836116ae565b6114c481611766565b6000818152600a6020526040902080546114dd906121c6565b1590506107d7576000818152600a602052604081206107d791611c6d565b611505838361180d565b611512600084848461152e565b61060a5760405162461bcd60e51b8152600401610569906120b7565b60006001600160a01b0384163b1561163057604051630a85bd0160e11b81526001600160a01b0385169063150b7a0290611572903390899088908890600401612023565b602060405180830381600087803b15801561158c57600080fd5b505af19250505080156115bc575060408051601f3d908101601f191682019092526115b991810190611ef3565b60015b611616573d8080156115ea576040519150601f19603f3d011682016040523d82523d6000602084013e6115ef565b606091505b50805161160e5760405162461bcd60e51b8152600401610569906120b7565b805181602001fd5b6001600160e01b031916630a85bd0160e11b149050610f51565b506001949350505050565b606061164682610dad565b600061165d60408051602081019091526000815290565b9050600081511161167d5760405180602001604052806000815250610a5e565b806116878461195b565b604051602001611698929190611ff4565b6040516020818303038152906040529392505050565b6001600160a01b0383166117095761170481600880546000838152600960205260408120829055600182018355919091527ff3f7a9fe364faab93b216da50a3214154f22a0a2b415b23a84c8169e8b636ee30155565b61172c565b816001600160a01b0316836001600160a01b03161461172c5761172c8382611a59565b6001600160a01b0382166117435761060a81611af6565b826001600160a01b0316826001600160a01b03161461060a5761060a8282611ba5565b600061177182610e0c565b905061177f816000846114b0565b61178a600083610e6c565b6001600160a01b03811660009081526003602052604081208054600192906117b3908490612183565b909155505060008281526002602052604080822080546001600160a01b0319169055518391906001600160a01b038416907fddf252ad1be2c89b69c2b068fc378daa952ba7f163c4a11628f55a4df523b3ef908390a45050565b6001600160a01b0382166118635760405162461bcd60e51b815260206004820181905260248201527f4552433732313a206d696e7420746f20746865207a65726f20616464726573736044820152606401610569565b6000818152600260205260409020546001600160a01b0316156118c85760405162461bcd60e51b815260206004820152601c60248201527f4552433732313a20746f6b656e20616c7265616479206d696e746564000000006044820152606401610569565b6118d4600083836114b0565b6001600160a01b03821660009081526003602052604081208054600192906118fd908490612157565b909155505060008181526002602052604080822080546001600160a01b0319166001600160a01b03861690811790915590518392907fddf252ad1be2c89b69c2b068fc378daa952ba7f163c4a11628f55a4df523b3ef908290a45050565b60608161197f5750506040805180820190915260018152600360fc1b602082015290565b8160005b81156119a9578061199381612201565b91506119a29050600a8361216f565b9150611983565b60008167ffffffffffffffff8111156119c4576119c4612288565b6040519080825280601f01601f1916602001820160405280156119ee576020820181803683370190505b5090505b8415610f5157611a03600183612183565b9150611a10600a8661221c565b611a1b906030612157565b60f81b818381518110611a3057611a30612272565b60200101906001600160f81b031916908160001a905350611a52600a8661216f565b94506119f2565b60006001611a6684611100565b611a709190612183565b600083815260076020526040902054909150808214611ac3576001600160a01b03841660009081526006602090815260408083208584528252808320548484528184208190558352600790915290208190555b5060009182526007602090815260408084208490556001600160a01b039094168352600681528383209183525290812055565b600854600090611b0890600190612183565b60008381526009602052604081205460088054939450909284908110611b3057611b30612272565b906000526020600020015490508060088381548110611b5157611b51612272565b6000918252602080832090910192909255828152600990915260408082208490558582528120556008805480611b8957611b8961225c565b6001900381819060005260206000200160009055905550505050565b6000611bb083611100565b6001600160a01b039093166000908152600660209081526040808320868452825280832085905593825260079052919091209190915550565b828054611bf5906121c6565b90600052602060002090601f016020900481019282611c175760008555611c5d565b82601f10611c3057805160ff1916838001178555611c5d565b82800160010185558215611c5d579182015b82811115611c5d578251825591602001919060010190611c42565b50611c69929150611ca3565b5090565b508054611c79906121c6565b6000825580601f10611c89575050565b601f0160209004906000526020600020908101906107d791905b5b80821115611c695760008155600101611ca4565b600067ffffffffffffffff80841115611cd357611cd3612288565b604051601f8501601f19908116603f01168101908282118183101715611cfb57611cfb612288565b81604052809350858152868686011115611d1457600080fd5b858560208301376000602087830101525050509392505050565b80356001600160a01b0381168114611d4557600080fd5b919050565b600082601f830112611d5b57600080fd5b610a5e83833560208501611cb8565b600060208284031215611d7c57600080fd5b610a5e82611d2e565b60008060408385031215611d9857600080fd5b611da183611d2e565b9150611daf60208401611d2e565b90509250929050565b600080600060608486031215611dcd57600080fd5b611dd684611d2e565b9250611de460208501611d2e565b9150604084013590509250925092565b60008060008060808587031215611e0a57600080fd5b611e1385611d2e565b9350611e2160208601611d2e565b925060408501359150606085013567ffffffffffffffff811115611e4457600080fd5b8501601f81018713611e5557600080fd5b611e6487823560208401611cb8565b91505092959194509250565b60008060408385031215611e8357600080fd5b611e8c83611d2e565b915060208301358015158114611ea157600080fd5b809150509250929050565b60008060408385031215611ebf57600080fd5b611ec883611d2e565b946020939093013593505050565b600060208284031215611ee857600080fd5b8135610a5e8161229e565b600060208284031215611f0557600080fd5b8151610a5e8161229e565b600060208284031215611f2257600080fd5b813567ffffffffffffffff811115611f3957600080fd5b610f5184828501611d4a565b600060208284031215611f5757600080fd5b5035919050565b60008060408385031215611f7157600080fd5b82359150611daf60208401611d2e565b60008060408385031215611f9457600080fd5b82359150602083013567ffffffffffffffff811115611fb257600080fd5b611fbe85828601611d4a565b9150509250929050565b60008151808452611fe081602086016020860161219a565b601f01601f19169290920160200192915050565b6000835161200681846020880161219a565b83519083019061201a81836020880161219a565b01949350505050565b6001600160a01b038581168252841660208201526040810183905260806060820181905260009061205690830184611fc8565b9695505050505050565b6020808252825182820181905260009190848201906040850190845b818110156120985783518352928401929184019160010161207c565b50909695505050505050565b602081526000610a5e6020830184611fc8565b60208082526032908201527f4552433732313a207472616e7366657220746f206e6f6e20455243373231526560408201527131b2b4bb32b91034b6b83632b6b2b73a32b960711b606082015260800190565b6020808252602e908201527f4552433732313a2063616c6c6572206973206e6f7420746f6b656e206f776e6560408201526d1c881b9bdc88185c1c1c9bdd995960921b606082015260800190565b6000821982111561216a5761216a612230565b500190565b60008261217e5761217e612246565b500490565b60008282101561219557612195612230565b500390565b60005b838110156121b557818101518382015260200161219d565b83811115610ab15750506000910152565b600181811c908216806121da57607f821691505b602082108114156121fb57634e487b7160e01b600052602260045260246000fd5b50919050565b600060001982141561221557612215612230565b5060010190565b60008261222b5761222b612246565b500690565b634e487b7160e01b600052601160045260246000fd5b634e487b7160e01b600052601260045260246000fd5b634e487b7160e01b600052603160045260246000fd5b634e487b7160e01b600052603260045260246000fd5b634e487b7160e01b600052604160045260246000fd5b6001600160e01b0319811681146107d757600080fdfea264697066735822122011b234c7dc195f543da668eec1e955902fb75dcad7ccecee2e9e6c357e3ac98664736f6c63430008070033",
  "linkReferences": {},
  "deployedLinkReferences": {}
}