{
  "_format": "hh-sol-artifact-1",
  "contractName": "VRFV2RandomGeneration",
  "sourceName": "contracts/VRFV2RandomGeneration.sol",
  "abi": [
    {
      "inputs": [],
      "stateMutability": "nonpayable",
      "type": "constructor"
    },
    {
      "inputs": [
        {
          "internalType": "address",
          "name": "have",
          "type": "address"
        },
        {
          "internalType": "address",
          "name": "want",
          "type": "address"
        }
      ],
      "name": "OnlyCoordinatorCanFulfill",
      "type": "error"
    },
    {
      "inputs": [
        {
          "internalType": "address",
          "name": "consumerAddress",
          "type": "address"
        }
      ],
      "name": "addConsumer",
      "outputs": [],
      "stateMutability": "nonpayable",
      "type": "function"
    },
    {
      "inputs": [
        {
          "internalType": "address",
          "name": "receivingWallet",
          "type": "address"
        }
      ],
      "name": "cancelSubscription",
      "outputs": [],
      "stateMutability": "nonpayable",
      "type": "function"
    },
    {
      "inputs": [],
      "name": "getRandomWords",
      "outputs": [
        {
          "internalType": "uint256",
          "name": "",
          "type": "uint256"
        }
      ],
      "stateMutability": "view",
      "type": "function"
    },
    {
      "inputs": [
        {
          "internalType": "uint256",
          "name": "requestId",
          "type": "uint256"
        },
        {
          "internalType": "uint256[]",
          "name": "randomWords",
          "type": "uint256[]"
        }
      ],
      "name": "rawFulfillRandomWords",
      "outputs": [],
      "stateMutability": "nonpayable",
      "type": "function"
    },
    {
      "inputs": [
        {
          "internalType": "address",
          "name": "consumerAddress",
          "type": "address"
        }
      ],
      "name": "removeConsumer",
      "outputs": [],
      "stateMutability": "nonpayable",
      "type": "function"
    },
    {
      "inputs": [],
      "name": "requestRandomWords",
      "outputs": [],
      "stateMutability": "nonpayable",
      "type": "function"
    },
    {
      "inputs": [],
      "name": "s_odin",
      "outputs": [
        {
          "internalType": "address",
          "name": "",
          "type": "address"
        }
      ],
      "stateMutability": "view",
      "type": "function"
    },
    {
      "inputs": [],
      "name": "s_owner",
      "outputs": [
        {
          "internalType": "address",
          "name": "",
          "type": "address"
        }
      ],
      "stateMutability": "view",
      "type": "function"
    },
    {
      "inputs": [
        {
          "internalType": "uint256",
          "name": "",
          "type": "uint256"
        }
      ],
      "name": "s_randomWords",
      "outputs": [
        {
          "internalType": "uint256",
          "name": "",
          "type": "uint256"
        }
      ],
      "stateMutability": "view",
      "type": "function"
    },
    {
      "inputs": [],
      "name": "s_requestId",
      "outputs": [
        {
          "internalType": "uint256",
          "name": "",
          "type": "uint256"
        }
      ],
      "stateMutability": "view",
      "type": "function"
    },
    {
      "inputs": [],
      "name": "s_subscriptionId",
      "outputs": [
        {
          "internalType": "uint64",
          "name": "",
          "type": "uint64"
        }
      ],
      "stateMutability": "view",
      "type": "function"
    },
    {
      "inputs": [
        {
          "internalType": "address",
          "name": "_newAddress",
          "type": "address"
        }
      ],
      "name": "setOdinAddress",
      "outputs": [],
      "stateMutability": "nonpayable",
      "type": "function"
    },
    {
      "inputs": [
        {
          "internalType": "uint256",
          "name": "amount",
          "type": "uint256"
        }
      ],
      "name": "topUpSubscription",
      "outputs": [],
      "stateMutability": "nonpayable",
      "type": "function"
    },
    {
      "inputs": [
        {
          "internalType": "uint256",
          "name": "amount",
          "type": "uint256"
        },
        {
          "internalType": "address",
          "name": "to",
          "type": "address"
        }
      ],
      "name": "withdraw",
      "outputs": [],
      "stateMutability": "nonpayable",
      "type": "function"
    }
  ],
  "bytecode": "0x60a0604052600280546001600160a01b031990811673271682deb8c4e0901d1a1550ad2e64d568e69909179091556003805490911673514910771af9ca656af840dff83e8264ecf986ca1790557f8af398995b04c28e9951adb9721ef74c74f93e6a478f39e7e0777be13527e7ef6004556005805466020003000186a06001600160501b031990911617905534801561009757600080fd5b50600254606081901b6001600160601b031916608052600080546001600160a01b039283166001600160a01b0319918216179091556003546001805491909316911617905560088054600160401b600160e01b031916336801000000000000000002179055610104610109565b61030d565b6008546801000000000000000090046001600160a01b0316331461012c57600080fd5b604080516001808252818301909252600091602080830190803683370190505090503081600081518110610162576101626102f7565b60200260200101906001600160a01b031690816001600160a01b03168152505060008054906101000a90046001600160a01b03166001600160a01b031663a21a23e46040518163ffffffff1660e01b8152600401602060405180830381600087803b1580156101d057600080fd5b505af11580156101e4573d6000803e3d6000fd5b505050506040513d601f19601f8201168201806040525081019061020891906102c7565b600880546001600160401b0319166001600160401b039290921691821790556000805483516001600160a01b0390911692637341c10c929091859190610250576102506102f7565b60200260200101516040518363ffffffff1660e01b81526004016102929291906001600160401b039290921682526001600160a01b0316602082015260400190565b600060405180830381600087803b1580156102ac57600080fd5b505af11580156102c0573d6000803e3d6000fd5b5050505050565b6000602082840312156102d957600080fd5b81516001600160401b03811681146102f057600080fd5b9392505050565b634e487b7160e01b600052603260045260246000fd5b60805160601c6109d9610332600039600081816103cf015261041101526109d96000f3fe608060405234801561001057600080fd5b50600436106100e95760003560e01c80638ac000211161008c578063e0c8628911610066578063e0c86289146101e4578063e3978240146101ec578063e89e106a14610206578063f6eaffc81461020f57600080fd5b80638ac000211461019257806393d81d58146101bf578063ce10b1fb146101d257600080fd5b80631fe543e3116100c85780631fe543e3146101295780632116fe761461013c5780634fa3b2ae1461014f57806386850e931461017f57600080fd5b8062f714ce146100ee5780630e27e3df14610103578063112940f914610116575b600080fd5b6101016100fc366004610824565b610222565b005b6101016101113660046107ae565b6102cb565b6101016101243660046107ae565b610360565b610101610137366004610850565b6103c4565b61010161014a3660046107ae565b610450565b600954610162906001600160a01b031681565b6040516001600160a01b0390911681526020015b60405180910390f35b61010161018d3660046107f2565b610490565b6008546101a69067ffffffffffffffff1681565b60405167ffffffffffffffff9091168152602001610176565b6101016101cd3660046107ae565b610562565b6007545b604051908152602001610176565b610101610607565b60085461016290600160401b90046001600160a01b031681565b6101d660075481565b6101d661021d3660046107f2565b6106e9565b600854600160401b90046001600160a01b0316331461024057600080fd5b60015460405163a9059cbb60e01b81526001600160a01b038381166004830152602482018590529091169063a9059cbb90604401602060405180830381600087803b15801561028e57600080fd5b505af11580156102a2573d6000803e3d6000fd5b505050506040513d601f19601f820116820180604052508101906102c691906107d0565b505050565b600854600160401b90046001600160a01b031633146102e957600080fd5b600054600854604051639f87fad760e01b815267ffffffffffffffff90911660048201526001600160a01b03838116602483015290911690639f87fad7906044015b600060405180830381600087803b15801561034557600080fd5b505af1158015610359573d6000803e3d6000fd5b5050505050565b600854600160401b90046001600160a01b0316331461037e57600080fd5b600054600854604051631cd0704360e21b815267ffffffffffffffff90911660048201526001600160a01b03838116602483015290911690637341c10c9060440161032b565b336001600160a01b037f000000000000000000000000000000000000000000000000000000000000000016146104425760405163073e64fd60e21b81523360048201526001600160a01b037f000000000000000000000000000000000000000000000000000000000000000016602482015260440160405180910390fd5b61044c828261070a565b5050565b600854600160401b90046001600160a01b0316331461046e57600080fd5b600980546001600160a01b0319166001600160a01b0392909216919091179055565b600854600160401b90046001600160a01b031633146104ae57600080fd5b6001546000546008546040805167ffffffffffffffff90921660208301526001600160a01b0393841693634000aea09316918591016040516020818303038152906040526040518463ffffffff1660e01b815260040161051093929190610921565b602060405180830381600087803b15801561052a57600080fd5b505af115801561053e573d6000803e3d6000fd5b505050506040513d601f19601f8201168201806040525081019061044c91906107d0565b600854600160401b90046001600160a01b0316331461058057600080fd5b600054600854604051630d7ae1d360e41b815267ffffffffffffffff90911660048201526001600160a01b0383811660248301529091169063d7ae1d3090604401600060405180830381600087803b1580156105db57600080fd5b505af11580156105ef573d6000803e3d6000fd5b50506008805467ffffffffffffffff19169055505050565b6009546001600160a01b0316331461061e57600080fd5b600054600480546008546005546040516305d3b1d360e41b81529384019290925267ffffffffffffffff166024830152640100000000810461ffff16604483015263ffffffff808216606484015266010000000000009091041660848201526001600160a01b0390911690635d3b1d309060a401602060405180830381600087803b1580156106ac57600080fd5b505af11580156106c0573d6000803e3d6000fd5b505050506040513d601f19601f820116820180604052508101906106e4919061080b565b600755565b600681815481106106f957600080fd5b600091825260209091200154905081565b80516006805482825560008290526102c6927ff652222313e28459528d920b65115c16c04f3efc82aaedc97be59f3f377c0d3f9182019160208601821561076d579160200282015b8281111561076d578251825591602001919060010190610752565b5061077992915061077d565b5090565b5b80821115610779576000815560010161077e565b80356001600160a01b03811681146107a957600080fd5b919050565b6000602082840312156107c057600080fd5b6107c982610792565b9392505050565b6000602082840312156107e257600080fd5b815180151581146107c957600080fd5b60006020828403121561080457600080fd5b5035919050565b60006020828403121561081d57600080fd5b5051919050565b6000806040838503121561083757600080fd5b8235915061084760208401610792565b90509250929050565b6000806040838503121561086357600080fd5b8235915060208084013567ffffffffffffffff8082111561088357600080fd5b818601915086601f83011261089757600080fd5b8135818111156108a9576108a961098d565b8060051b604051601f19603f830116810181811085821117156108ce576108ce61098d565b604052828152858101935084860182860187018b10156108ed57600080fd5b600095505b838610156109105780358552600195909501949386019386016108f2565b508096505050505050509250929050565b60018060a01b038416815260006020848184015260606040840152835180606085015260005b8181101561096357858101830151858201608001528201610947565b81811115610975576000608083870101525b50601f01601f19169290920160800195945050505050565b634e487b7160e01b600052604160045260246000fdfea2646970667358221220ff8d70ce9f9f1d1bc1b8c496ef8061285be588fe10f81cd629d76f82a47613e464736f6c63430008070033",
  "linkReferences": {},
  "deployedLinkReferences": {}
}