{
  "_format": "hh-sol-artifact-1",
  "contractName": "OdinNFTStaking",
  "sourceName": "contracts/OdinStaking.sol",
  "abi": [
    {
      "inputs": [
        {
          "internalType": "address",
          "name": "nftAddress_",
          "type": "address"
        },
        {
          "internalType": "address",
          "name": "rewardAddress_",
          "type": "address"
        },
        {
          "internalType": "address",
          "name": "adminRecoveryAddress_",
          "type": "address"
        }
      ],
      "stateMutability": "nonpayable",
      "type": "constructor"
    },
    {
      "anonymous": false,
      "inputs": [
        {
          "indexed": true,
          "internalType": "address",
          "name": "previousOwner",
          "type": "address"
        },
        {
          "indexed": true,
          "internalType": "address",
          "name": "newOwner",
          "type": "address"
        }
      ],
      "name": "OwnershipTransferred",
      "type": "event"
    },
    {
      "inputs": [],
      "name": "MarketAddress",
      "outputs": [
        {
          "internalType": "address",
          "name": "",
          "type": "address"
        }
      ],
      "stateMutability": "view",
      "type": "function"
    },
    {
      "inputs": [],
      "name": "NFTTokenAddress",
      "outputs": [
        {
          "internalType": "address",
          "name": "",
          "type": "address"
        }
      ],
      "stateMutability": "view",
      "type": "function"
    },
    {
      "inputs": [],
      "name": "_getNow",
      "outputs": [
        {
          "internalType": "uint256",
          "name": "",
          "type": "uint256"
        }
      ],
      "stateMutability": "view",
      "type": "function"
    },
    {
      "inputs": [],
      "name": "adminRecoveryAddress",
      "outputs": [
        {
          "internalType": "address",
          "name": "",
          "type": "address"
        }
      ],
      "stateMutability": "view",
      "type": "function"
    },
    {
      "inputs": [],
      "name": "claimReward",
      "outputs": [
        {
          "internalType": "bool",
          "name": "",
          "type": "bool"
        }
      ],
      "stateMutability": "nonpayable",
      "type": "function"
    },
    {
      "inputs": [
        {
          "internalType": "address",
          "name": "_owner",
          "type": "address"
        }
      ],
      "name": "getAccountLevelsInfo",
      "outputs": [
        {
          "internalType": "uint256[]",
          "name": "",
          "type": "uint256[]"
        }
      ],
      "stateMutability": "view",
      "type": "function"
    },
    {
      "inputs": [
        {
          "internalType": "address",
          "name": "_owner",
          "type": "address"
        }
      ],
      "name": "getIsStaking",
      "outputs": [
        {
          "internalType": "bool",
          "name": "",
          "type": "bool"
        }
      ],
      "stateMutability": "view",
      "type": "function"
    },
    {
      "inputs": [
        {
          "internalType": "address",
          "name": "_owner",
          "type": "address"
        }
      ],
      "name": "getLevelCount",
      "outputs": [
        {
          "internalType": "uint256",
          "name": "",
          "type": "uint256"
        }
      ],
      "stateMutability": "view",
      "type": "function"
    },
    {
      "inputs": [],
      "name": "getMarketAddress",
      "outputs": [
        {
          "internalType": "address",
          "name": "",
          "type": "address"
        }
      ],
      "stateMutability": "view",
      "type": "function"
    },
    {
      "inputs": [],
      "name": "getNFTTokenAddress",
      "outputs": [
        {
          "internalType": "address",
          "name": "",
          "type": "address"
        }
      ],
      "stateMutability": "view",
      "type": "function"
    },
    {
      "inputs": [
        {
          "internalType": "address",
          "name": "_owner",
          "type": "address"
        }
      ],
      "name": "getRestTime",
      "outputs": [
        {
          "internalType": "uint256",
          "name": "",
          "type": "uint256"
        }
      ],
      "stateMutability": "view",
      "type": "function"
    },
    {
      "inputs": [
        {
          "internalType": "address",
          "name": "_owner",
          "type": "address"
        }
      ],
      "name": "getRewardPercentage",
      "outputs": [
        {
          "internalType": "uint256",
          "name": "",
          "type": "uint256"
        }
      ],
      "stateMutability": "view",
      "type": "function"
    },
    {
      "inputs": [],
      "name": "getRewardTokenAddress",
      "outputs": [
        {
          "internalType": "address",
          "name": "",
          "type": "address"
        }
      ],
      "stateMutability": "view",
      "type": "function"
    },
    {
      "inputs": [
        {
          "internalType": "address",
          "name": "_owner",
          "type": "address"
        }
      ],
      "name": "getStakedTokens",
      "outputs": [
        {
          "internalType": "uint256[]",
          "name": "",
          "type": "uint256[]"
        }
      ],
      "stateMutability": "view",
      "type": "function"
    },
    {
      "inputs": [
        {
          "internalType": "address",
          "name": "_owner",
          "type": "address"
        }
      ],
      "name": "getTokenCount",
      "outputs": [
        {
          "internalType": "uint256",
          "name": "",
          "type": "uint256"
        }
      ],
      "stateMutability": "view",
      "type": "function"
    },
    {
      "inputs": [
        {
          "internalType": "address",
          "name": "_owner",
          "type": "address"
        }
      ],
      "name": "getTokensOfOwner",
      "outputs": [
        {
          "internalType": "uint256[]",
          "name": "",
          "type": "uint256[]"
        }
      ],
      "stateMutability": "view",
      "type": "function"
    },
    {
      "inputs": [],
      "name": "iMarket",
      "outputs": [
        {
          "internalType": "contract IMarket",
          "name": "",
          "type": "address"
        }
      ],
      "stateMutability": "view",
      "type": "function"
    },
    {
      "inputs": [],
      "name": "iODINNFT",
      "outputs": [
        {
          "internalType": "contract IODINNFT",
          "name": "",
          "type": "address"
        }
      ],
      "stateMutability": "view",
      "type": "function"
    },
    {
      "inputs": [],
      "name": "iODINToken",
      "outputs": [
        {
          "internalType": "contract IODINToken",
          "name": "",
          "type": "address"
        }
      ],
      "stateMutability": "view",
      "type": "function"
    },
    {
      "inputs": [
        {
          "internalType": "address",
          "name": "owner",
          "type": "address"
        }
      ],
      "name": "isClaimable",
      "outputs": [
        {
          "internalType": "bool",
          "name": "",
          "type": "bool"
        }
      ],
      "stateMutability": "view",
      "type": "function"
    },
    {
      "inputs": [
        {
          "internalType": "address",
          "name": "owner",
          "type": "address"
        }
      ],
      "name": "isStakable",
      "outputs": [
        {
          "internalType": "bool",
          "name": "",
          "type": "bool"
        }
      ],
      "stateMutability": "nonpayable",
      "type": "function"
    },
    {
      "inputs": [
        {
          "internalType": "address",
          "name": "",
          "type": "address"
        }
      ],
      "name": "levelCountOfOwner",
      "outputs": [
        {
          "internalType": "uint256",
          "name": "",
          "type": "uint256"
        }
      ],
      "stateMutability": "view",
      "type": "function"
    },
    {
      "inputs": [
        {
          "internalType": "address",
          "name": "",
          "type": "address"
        },
        {
          "internalType": "uint256",
          "name": "",
          "type": "uint256"
        }
      ],
      "name": "levelOfOwner",
      "outputs": [
        {
          "internalType": "bool",
          "name": "",
          "type": "bool"
        }
      ],
      "stateMutability": "view",
      "type": "function"
    },
    {
      "inputs": [],
      "name": "owner",
      "outputs": [
        {
          "internalType": "address",
          "name": "",
          "type": "address"
        }
      ],
      "stateMutability": "view",
      "type": "function"
    },
    {
      "inputs": [],
      "name": "renounceOwnership",
      "outputs": [],
      "stateMutability": "nonpayable",
      "type": "function"
    },
    {
      "inputs": [
        {
          "internalType": "uint256",
          "name": "",
          "type": "uint256"
        }
      ],
      "name": "rewardPercentage",
      "outputs": [
        {
          "internalType": "uint256",
          "name": "",
          "type": "uint256"
        }
      ],
      "stateMutability": "view",
      "type": "function"
    },
    {
      "inputs": [],
      "name": "rewardTokenAddress",
      "outputs": [
        {
          "internalType": "address",
          "name": "",
          "type": "address"
        }
      ],
      "stateMutability": "view",
      "type": "function"
    },
    {
      "inputs": [
        {
          "internalType": "address",
          "name": "_new",
          "type": "address"
        }
      ],
      "name": "setMarketAddress",
      "outputs": [],
      "stateMutability": "nonpayable",
      "type": "function"
    },
    {
      "inputs": [],
      "name": "setMarketContract",
      "outputs": [],
      "stateMutability": "nonpayable",
      "type": "function"
    },
    {
      "inputs": [],
      "name": "setNFTContract",
      "outputs": [],
      "stateMutability": "nonpayable",
      "type": "function"
    },
    {
      "inputs": [
        {
          "internalType": "address",
          "name": "_new",
          "type": "address"
        }
      ],
      "name": "setNFTTokenAddress",
      "outputs": [],
      "stateMutability": "nonpayable",
      "type": "function"
    },
    {
      "inputs": [],
      "name": "setRewardContract",
      "outputs": [],
      "stateMutability": "nonpayable",
      "type": "function"
    },
    {
      "inputs": [
        {
          "internalType": "address",
          "name": "_owner",
          "type": "address"
        },
        {
          "internalType": "uint256",
          "name": "_period",
          "type": "uint256"
        }
      ],
      "name": "setRewardPercentage",
      "outputs": [
        {
          "internalType": "uint256",
          "name": "",
          "type": "uint256"
        }
      ],
      "stateMutability": "view",
      "type": "function"
    },
    {
      "inputs": [
        {
          "internalType": "address",
          "name": "_new",
          "type": "address"
        }
      ],
      "name": "setRewardTokenAddress",
      "outputs": [],
      "stateMutability": "nonpayable",
      "type": "function"
    },
    {
      "inputs": [
        {
          "internalType": "uint256",
          "name": "_period",
          "type": "uint256"
        }
      ],
      "name": "stake",
      "outputs": [],
      "stateMutability": "nonpayable",
      "type": "function"
    },
    {
      "inputs": [
        {
          "internalType": "address",
          "name": "",
          "type": "address"
        }
      ],
      "name": "stakers",
      "outputs": [
        {
          "internalType": "uint256",
          "name": "lastStartTime",
          "type": "uint256"
        },
        {
          "internalType": "uint256",
          "name": "readyTime",
          "type": "uint256"
        },
        {
          "internalType": "uint256",
          "name": "period",
          "type": "uint256"
        },
        {
          "internalType": "uint256",
          "name": "rewardPercentage",
          "type": "uint256"
        },
        {
          "internalType": "uint256",
          "name": "bonusPercentage",
          "type": "uint256"
        },
        {
          "internalType": "bool",
          "name": "isStaking",
          "type": "bool"
        }
      ],
      "stateMutability": "view",
      "type": "function"
    },
    {
      "inputs": [
        {
          "internalType": "address",
          "name": "newOwner",
          "type": "address"
        }
      ],
      "name": "transferOwnership",
      "outputs": [],
      "stateMutability": "nonpayable",
      "type": "function"
    },
    {
      "stateMutability": "payable",
      "type": "receive"
    }
  ],
  "bytecode": "0x6101a060405260056080908152600a60a052600f60c052601460e052601961010052601e6101205260236101405260286101605260326101805262000048906009908162000138565b503480156200005657600080fd5b506040516200229a3803806200229a8339810160408190526200007991620001c1565b6200008433620000e8565b600580546001600160a01b039384166001600160a01b0319918216811790925560068054958516958216861790556008805493909416928116929092179092556007805482169055600180548216909317909255600280549092161790556200020b565b600080546001600160a01b038381166001600160a01b0319831681178455604051919092169283917f8be0079c531659141344cd1fd0a4f28419497f9722a3daafe3b4186f6b6457e09190a35050565b8280548282559060005260206000209081019282156200017b579160200282015b828111156200017b578251829060ff1690559160200191906001019062000159565b50620001899291506200018d565b5090565b5b808211156200018957600081556001016200018e565b80516001600160a01b0381168114620001bc57600080fd5b919050565b600080600060608486031215620001d757600080fd5b620001e284620001a4565b9250620001f260208501620001a4565b91506200020260408501620001a4565b90509250925092565b61207f806200021b6000396000f3fe60806040526004361061021e5760003560e01c806376727fa311610123578063ae61aa0a116100ab578063e7334fe51161006f578063e7334fe5146106e9578063f2fde38b14610707578063fae9261214610727578063fafe0d1f14610747578063ffae9c501461076757600080fd5b8063ae61aa0a14610636578063b88a802f14610672578063c8ef3d6514610687578063d26ba7ff1461069c578063d45c1d58146106c957600080fd5b80639168ae72116100f25780639168ae721461054057806399e117a0146105c55780639a6acf20146105e3578063a694fc3a14610603578063a78beb881461062357600080fd5b806376727fa3146104c45780637ee285e8146104e457806389f6e00d146105025780638da5cb5b1461052257600080fd5b8063480a7472116101a657806363c28db11161017557806363c28db1146103fe5780636ecbade11461041e5780636f52d0b61461043e578063715018a61461047457806373ac74bf1461048957600080fd5b8063480a74721461037e5780635da5829d1461039e5780635de6dc55146103be578063619f7cd0146103de57600080fd5b80631a2d66c2116101ed5780631a2d66c2146102cc5780631e1e2150146102ec578063292fec04146103195780632c404d8314610349578063474cfba31461036957600080fd5b80630b0ce8e61461022a578063113f920514610241578063125f9e331461027457806316ead073146102ac57600080fd5b3661022557005b600080fd5b34801561023657600080fd5b5061023f610787565b005b34801561024d57600080fd5b5061026161025c366004611cb8565b6107b3565b6040519081526020015b60405180910390f35b34801561028057600080fd5b50600554610294906001600160a01b031681565b6040516001600160a01b03909116815260200161026b565b3480156102b857600080fd5b50600354610294906001600160a01b031681565b3480156102d857600080fd5b50600154610294906001600160a01b031681565b3480156102f857600080fd5b5061030c610307366004611cb8565b610816565b60405161026b9190611eae565b34801561032557600080fd5b50610339610334366004611cb8565b61089f565b604051901515815260200161026b565b34801561035557600080fd5b50600254610294906001600160a01b031681565b34801561037557600080fd5b5061023f6108fc565b34801561038a57600080fd5b5061023f610399366004611cb8565b610928565b3480156103aa57600080fd5b506102616103b9366004611cd3565b610952565b3480156103ca57600080fd5b5061030c6103d9366004611cb8565b610c38565b3480156103ea57600080fd5b506102616103f9366004611e60565b610c6b565b34801561040a57600080fd5b5061030c610419366004611cb8565b610c8c565b34801561042a57600080fd5b50610261610439366004611cb8565b610cf8565b34801561044a57600080fd5b50610261610459366004611cb8565b6001600160a01b03166000908152600c602052604090205490565b34801561048057600080fd5b5061023f610d62565b34801561049557600080fd5b506103396104a4366004611cd3565b600b60209081526000928352604080842090915290825290205460ff1681565b3480156104d057600080fd5b506102616104df366004611cb8565b610d76565b3480156104f057600080fd5b506006546001600160a01b0316610294565b34801561050e57600080fd5b5061033961051d366004611cb8565b610df4565b34801561052e57600080fd5b506000546001600160a01b0316610294565b34801561054c57600080fd5b5061059661055b366004611cb8565b600a60205260009081526040902060018101546002820154600383015460048401546005850154600690950154939492939192909160ff1686565b6040805196875260208701959095529385019290925260608401526080830152151560a082015260c00161026b565b3480156105d157600080fd5b506005546001600160a01b0316610294565b3480156105ef57600080fd5b5061023f6105fe366004611cb8565b610efa565b34801561060f57600080fd5b5061023f61061e366004611e60565b610f24565b34801561062f57600080fd5b5042610261565b34801561064257600080fd5b50610339610651366004611cb8565b6001600160a01b03166000908152600a602052604090206006015460ff1690565b34801561067e57600080fd5b5061033961111b565b34801561069357600080fd5b5061023f611400565b3480156106a857600080fd5b506102616106b7366004611cb8565b600c6020526000908152604090205481565b3480156106d557600080fd5b50600654610294906001600160a01b031681565b3480156106f557600080fd5b506007546001600160a01b0316610294565b34801561071357600080fd5b5061023f610722366004611cb8565b61142c565b34801561073357600080fd5b5061023f610742366004611cb8565b6114a5565b34801561075357600080fd5b50600854610294906001600160a01b031681565b34801561077357600080fd5b50600754610294906001600160a01b031681565b61078f6114cf565b600754600380546001600160a01b0319166001600160a01b03909216919091179055565b6001600160a01b0381166000908152600a602052604081206006015460ff166107f75760405162461bcd60e51b81526004016107ee90611ef2565b60405180910390fd5b506001600160a01b03166000908152600a602052604090206004015490565b600154604051630cc862bd60e31b81526001600160a01b038381166004830152606092169063664315e8906024015b60006040518083038186803b15801561085d57600080fd5b505afa158015610871573d6000803e3d6000fd5b505050506040513d6000823e601f3d908101601f191682016040526108999190810190611cfd565b92915050565b6001600160a01b0381166000908152600a602052604081206006015460ff166108da5760405162461bcd60e51b81526004016107ee90611ef2565b506001600160a01b03166000908152600a602052604090206002015442101590565b6109046114cf565b600554600280546001600160a01b0319166001600160a01b03909216919091179055565b6109306114cf565b600680546001600160a01b0319166001600160a01b0392909216919091179055565b6007546000906001600160a01b03166109ad5760405162461bcd60e51b815260206004820152601760248201527f4e6f742073746172746564206d61726b6574706c61636500000000000000000060448201526064016107ee565b6000806109b985610c38565b905060005b8151811015610b865760035482516000916001600160a01b03169063808d6d29908590859081106109f1576109f161201d565b60200260200101516040518263ffffffff1660e01b8152600401610a1791815260200190565b60006040518083038186803b158015610a2f57600080fd5b505afa158015610a43573d6000803e3d6000fd5b505050506040513d6000823e601f3d908101601f19168201604052610a6b9190810190611dcc565b6040516221272160e91b60208201529091506023016040516020818303038152906040528051906020012081604051602001610aa79190611e92565b604051602081830303815290604052805190602001201415610b735760035483516000916001600160a01b03169063c457fb3790869086908110610aed57610aed61201d565b60200260200101516040518263ffffffff1660e01b8152600401610b1391815260200190565b60206040518083038186803b158015610b2b57600080fd5b505afa158015610b3f573d6000803e3d6000fd5b505050506040513d601f19601f82011682018060405250810190610b639190611e79565b9050610b6f8582611529565b9450505b5080610b7e81611fec565b9150506109be565b506005546008546040516370a0823160e01b81526001600160a01b03918216600482015260009291909116906370a082319060240160206040518083038186803b158015610bd357600080fd5b505afa158015610be7573d6000803e3d6000fd5b505050506040513d601f19601f82011682018060405250810190610c0b9190611e79565b90506000610c2d610c1d83600a611535565b610c278689611535565b90611541565b979650505050505050565b600154604051635de6dc5560e01b81526001600160a01b0383811660048301526060921690635de6dc5590602401610845565b60098181548110610c7b57600080fd5b600091825260209091200154905081565b6001600160a01b0381166000908152600a6020908152604091829020805483518184028101840190945280845260609392830182828015610cec57602002820191906000526020600020905b815481526020019060010190808311610cd8575b50505050509050919050565b6001600160a01b0381166000908152600a602052604081206006015460ff16610d335760405162461bcd60e51b81526004016107ee90611ef2565b6001600160a01b0382166000908152600a60205260409020600201544290610d5b908261154d565b9392505050565b610d6a6114cf565b610d746000611559565b565b6001546040516370a0823160e01b81526001600160a01b03838116600483015260009216906370a082319060240160206040518083038186803b158015610dbc57600080fd5b505afa158015610dd0573d6000803e3d6000fd5b505050506040513d601f19601f820116820180604052508101906108999190611e79565b60006001610e0183610d76565b11610e4e5760405162461bcd60e51b815260206004820152601960248201527f4d7573742068617665206174206c656173742032204e4654730000000000000060448201526064016107ee565b600154604051630cc862bd60e31b81526001600160a01b038481166004830152600092839291169063664315e89060240160006040518083038186803b158015610e9757600080fd5b505afa158015610eab573d6000803e3d6000fd5b505050506040513d6000823e601f3d908101601f19168201604052610ed39190810190611cfd565b90506000610ee185836115a9565b90506001811115610ef157600192505b50909392505050565b610f026114cf565b600580546001600160a01b0319166001600160a01b0392909216919091179055565b610f2d33610df4565b610f855760405162461bcd60e51b815260206004820152602360248201527f4d7573742068617665206174206c65617374203220646966666572656e74204e60448201526246547360e81b60648201526084016107ee565b6000610f9033610c38565b905060005b81518110156110505760015482516001600160a01b03909116906323b872dd9033903090869086908110610fcb57610fcb61201d565b60209081029190910101516040516001600160e01b031960e086901b1681526001600160a01b0393841660048201529290911660248301526044820152606401600060405180830381600087803b15801561102557600080fd5b505af1158015611039573d6000803e3d6000fd5b50505050808061104890611fec565b915050610f95565b5061105a33610c38565b336000908152600a60209081526040909120825161107e9391929190910190611c3c565b5042336000908152600a60205260409020600101556110a06201518083611535565b6110aa9042611f4c565b336000818152600a60205260409020600281019290925560039091018390556110d39083610952565b336000818152600a60205260409020600401919091556110f2906116ec565b336000908152600a602052604090206005810191909155600601805460ff191660011790555050565b6000806111273361089f565b9050806111675760405162461bcd60e51b815260206004820152600e60248201526d6e6f742072656164792074696d6560901b60448201526064016107ee565b6005546040516370a0823160e01b81523060048201526000916001600160a01b0316906370a082319060240160206040518083038186803b1580156111ab57600080fd5b505afa1580156111bf573d6000803e3d6000fd5b505050506040513d601f19601f820116820180604052508101906111e39190611e79565b600254336000818152600a60205260408120600581015460049091015494955090936001600160a01b039093169263beabacc8923092909161123791606491610c27916112309190611529565b8990611535565b6040516001600160e01b031960e086901b1681526001600160a01b0393841660048201529290911660248301526044820152606401602060405180830381600087803b15801561128657600080fd5b505af115801561129a573d6000803e3d6000fd5b505050506040513d601f19601f820116820180604052508101906112be9190611daa565b336000908152600a602090815260408083208054825181850281018501909352808352949550929390929183018282801561131857602002820191906000526020600020905b815481526020019060010190808311611304575b5050505050905060005b81518110156113dd5760015482516001600160a01b03909116906323b872dd90309033908690869081106113585761135861201d565b60209081029190910101516040516001600160e01b031960e086901b1681526001600160a01b0393841660048201529290911660248301526044820152606401600060405180830381600087803b1580156113b257600080fd5b505af11580156113c6573d6000803e3d6000fd5b5050505080806113d590611fec565b915050611322565b5050336000908152600a60205260409020600601805460ff191690559392505050565b6114086114cf565b600654600180546001600160a01b0319166001600160a01b03909216919091179055565b6114346114cf565b6001600160a01b0381166114995760405162461bcd60e51b815260206004820152602660248201527f4f776e61626c653a206e6577206f776e657220697320746865207a65726f206160448201526564647265737360d01b60648201526084016107ee565b6114a281611559565b50565b6114ad6114cf565b600780546001600160a01b0319166001600160a01b0392909216919091179055565b6000546001600160a01b03163314610d745760405162461bcd60e51b815260206004820181905260248201527f4f776e61626c653a2063616c6c6572206973206e6f7420746865206f776e657260448201526064016107ee565b6000610d5b8284611f4c565b6000610d5b8284611f86565b6000610d5b8284611f64565b6000610d5b8284611fa5565b600080546001600160a01b038381166001600160a01b0319831681178455604051919092169283917f8be0079c531659141344cd1fd0a4f28419497f9722a3daafe3b4186f6b6457e09190a35050565b6000808251116115ec5760405162461bcd60e51b815260206004820152600e60248201526d6e6f7468696e67206c6576656c7360901b60448201526064016107ee565b6000805b83518110156116c8576001600160a01b0385166000908152600b6020526040812085519091908690849081106116285761162861201d565b60209081029190910181015182528101919091526040016000205460ff166116b6576001600160a01b0385166000908152600b6020526040812085516001929087908590811061167a5761167a61201d565b6020026020010151815260200190815260200160002060006101000a81548160ff02191690831515021790555081806116b290611fec565b9250505b806116c081611fec565b9150506115f0565b506001600160a01b0384166000908152600c60205260409020819055905092915050565b6001600160a01b0381166000908152600b6020908152604080832060028452909152812054819060ff16801561174657506001600160a01b0383166000908152600b602090815260408083206003845290915290205460ff165b1561174f575060055b6001600160a01b0383166000908152600b602090815260408083206003845290915290205460ff1680156117a757506001600160a01b0383166000908152600b602090815260408083206004845290915290205460ff165b156117b05750600a5b6001600160a01b0383166000908152600b602090815260408083206004845290915290205460ff16801561180857506001600160a01b0383166000908152600b602090815260408083206005845290915290205460ff165b156118115750600f5b6001600160a01b0383166000908152600b602090815260408083206001845290915290205460ff16801561186957506001600160a01b0383166000908152600b602090815260408083206002845290915290205460ff165b801561189957506001600160a01b0383166000908152600b602090815260408083206003845290915290205460ff165b156118a2575060145b6001600160a01b0383166000908152600b602090815260408083206002845290915290205460ff1680156118fa57506001600160a01b0383166000908152600b602090815260408083206003845290915290205460ff165b801561192a57506001600160a01b0383166000908152600b602090815260408083206004845290915290205460ff165b15611933575060195b6001600160a01b0383166000908152600b602090815260408083206003845290915290205460ff16801561198b57506001600160a01b0383166000908152600b602090815260408083206004845290915290205460ff165b80156119bb57506001600160a01b0383166000908152600b602090815260408083206005845290915290205460ff165b156119c45750601e5b6001600160a01b0383166000908152600b602090815260408083206001845290915290205460ff168015611a1c57506001600160a01b0383166000908152600b602090815260408083206002845290915290205460ff165b8015611a4c57506001600160a01b0383166000908152600b602090815260408083206003845290915290205460ff165b8015611a7c57506001600160a01b0383166000908152600b602090815260408083206004845290915290205460ff165b15611a85575060235b6001600160a01b0383166000908152600b602090815260408083206002845290915290205460ff168015611add57506001600160a01b0383166000908152600b602090815260408083206003845290915290205460ff165b8015611b0d57506001600160a01b0383166000908152600b602090815260408083206004845290915290205460ff165b8015611b3d57506001600160a01b0383166000908152600b602090815260408083206005845290915290205460ff165b15611b46575060285b6001600160a01b0383166000908152600b602090815260408083206001845290915290205460ff168015611b9e57506001600160a01b0383166000908152600b602090815260408083206002845290915290205460ff165b8015611bce57506001600160a01b0383166000908152600b602090815260408083206003845290915290205460ff165b8015611bfe57506001600160a01b0383166000908152600b602090815260408083206004845290915290205460ff165b8015611c2e57506001600160a01b0383166000908152600b602090815260408083206005845290915290205460ff165b156108995750603292915050565b828054828255906000526020600020908101928215611c77579160200282015b82811115611c77578251825591602001919060010190611c5c565b50611c83929150611c87565b5090565b5b80821115611c835760008155600101611c88565b80356001600160a01b0381168114611cb357600080fd5b919050565b600060208284031215611cca57600080fd5b610d5b82611c9c565b60008060408385031215611ce657600080fd5b611cef83611c9c565b946020939093013593505050565b60006020808385031215611d1057600080fd5b825167ffffffffffffffff80821115611d2857600080fd5b818501915085601f830112611d3c57600080fd5b815181811115611d4e57611d4e612033565b8060051b9150611d5f848301611f1b565b8181528481019084860184860187018a1015611d7a57600080fd5b600095505b83861015611d9d578051835260019590950194918601918601611d7f565b5098975050505050505050565b600060208284031215611dbc57600080fd5b81518015158114610d5b57600080fd5b600060208284031215611dde57600080fd5b815167ffffffffffffffff80821115611df657600080fd5b818401915084601f830112611e0a57600080fd5b815181811115611e1c57611e1c612033565b611e2f601f8201601f1916602001611f1b565b9150808252856020828501011115611e4657600080fd5b611e57816020840160208601611fbc565b50949350505050565b600060208284031215611e7257600080fd5b5035919050565b600060208284031215611e8b57600080fd5b5051919050565b60008251611ea4818460208701611fbc565b9190910192915050565b6020808252825182820181905260009190848201906040850190845b81811015611ee657835183529284019291840191600101611eca565b50909695505050505050565b6020808252600f908201526e26bab9ba1031329039ba30b5b2b21760891b604082015260600190565b604051601f8201601f1916810167ffffffffffffffff81118282101715611f4457611f44612033565b604052919050565b60008219821115611f5f57611f5f612007565b500190565b600082611f8157634e487b7160e01b600052601260045260246000fd5b500490565b6000816000190483118215151615611fa057611fa0612007565b500290565b600082821015611fb757611fb7612007565b500390565b60005b83811015611fd7578181015183820152602001611fbf565b83811115611fe6576000848401525b50505050565b600060001982141561200057612000612007565b5060010190565b634e487b7160e01b600052601160045260246000fd5b634e487b7160e01b600052603260045260246000fd5b634e487b7160e01b600052604160045260246000fdfea2646970667358221220ac717302600b9dda15a0ee8234e95b90d9c35db455b5855bab9f3ab6f6b9ac8c64736f6c63430008070033",
  "linkReferences": {},
  "deployedLinkReferences": {}
}