{
  "_format": "hh-sol-artifact-1",
  "contractName": "OdineumToken",
  "sourceName": "contracts/Odin.sol",
  "abi": [
    {
      "inputs": [
        {
          "internalType": "address",
          "name": "_nftAddress",
          "type": "address"
        },
        {
          "internalType": "address",
          "name": "routerAddress",
          "type": "address"
        },
        {
          "internalType": "address",
          "name": "_usdtAddress",
          "type": "address"
        },
        {
          "internalType": "address",
          "name": "_vrfAddress",
          "type": "address"
        },
        {
          "internalType": "address",
          "name": "_marketingAddress",
          "type": "address"
        }
      ],
      "stateMutability": "nonpayable",
      "type": "constructor"
    },
    {
      "anonymous": false,
      "inputs": [
        {
          "indexed": true,
          "internalType": "address",
          "name": "owner",
          "type": "address"
        },
        {
          "indexed": true,
          "internalType": "address",
          "name": "spender",
          "type": "address"
        },
        {
          "indexed": false,
          "internalType": "uint256",
          "name": "value",
          "type": "uint256"
        }
      ],
      "name": "Approval",
      "type": "event"
    },
    {
      "anonymous": false,
      "inputs": [
        {
          "indexed": true,
          "internalType": "address",
          "name": "previousOwner",
          "type": "address"
        },
        {
          "indexed": true,
          "internalType": "address",
          "name": "newOwner",
          "type": "address"
        }
      ],
      "name": "OwnershipTransferred",
      "type": "event"
    },
    {
      "anonymous": false,
      "inputs": [
        {
          "indexed": false,
          "internalType": "uint256",
          "name": "tokensSwapped",
          "type": "uint256"
        },
        {
          "indexed": false,
          "internalType": "uint256",
          "name": "usdtReceived",
          "type": "uint256"
        },
        {
          "indexed": false,
          "internalType": "uint256",
          "name": "tokensIntoLiqudity",
          "type": "uint256"
        }
      ],
      "name": "SwapAndLiquify",
      "type": "event"
    },
    {
      "anonymous": false,
      "inputs": [
        {
          "indexed": true,
          "internalType": "address",
          "name": "from",
          "type": "address"
        },
        {
          "indexed": true,
          "internalType": "address",
          "name": "to",
          "type": "address"
        },
        {
          "indexed": false,
          "internalType": "uint256",
          "name": "value",
          "type": "uint256"
        }
      ],
      "name": "Transfer",
      "type": "event"
    },
    {
      "inputs": [],
      "name": "_enableLiquidity",
      "outputs": [
        {
          "internalType": "bool",
          "name": "",
          "type": "bool"
        }
      ],
      "stateMutability": "view",
      "type": "function"
    },
    {
      "inputs": [],
      "name": "_marketingTaxFee",
      "outputs": [
        {
          "internalType": "uint256",
          "name": "",
          "type": "uint256"
        }
      ],
      "stateMutability": "view",
      "type": "function"
    },
    {
      "inputs": [],
      "name": "_maxTxAmount",
      "outputs": [
        {
          "internalType": "uint256",
          "name": "",
          "type": "uint256"
        }
      ],
      "stateMutability": "view",
      "type": "function"
    },
    {
      "inputs": [],
      "name": "_reflectionTaxFee",
      "outputs": [
        {
          "internalType": "uint256",
          "name": "",
          "type": "uint256"
        }
      ],
      "stateMutability": "view",
      "type": "function"
    },
    {
      "inputs": [],
      "name": "_stakingTaxFee",
      "outputs": [
        {
          "internalType": "uint256",
          "name": "",
          "type": "uint256"
        }
      ],
      "stateMutability": "view",
      "type": "function"
    },
    {
      "inputs": [],
      "name": "_uniswapV2LiquidityPair",
      "outputs": [
        {
          "internalType": "address",
          "name": "",
          "type": "address"
        }
      ],
      "stateMutability": "view",
      "type": "function"
    },
    {
      "inputs": [],
      "name": "_uniswapV2Router",
      "outputs": [
        {
          "internalType": "contract IUniswapV2Router02",
          "name": "",
          "type": "address"
        }
      ],
      "stateMutability": "view",
      "type": "function"
    },
    {
      "inputs": [
        {
          "internalType": "address",
          "name": "owner",
          "type": "address"
        },
        {
          "internalType": "address",
          "name": "spender",
          "type": "address"
        }
      ],
      "name": "allowance",
      "outputs": [
        {
          "internalType": "uint256",
          "name": "",
          "type": "uint256"
        }
      ],
      "stateMutability": "view",
      "type": "function"
    },
    {
      "inputs": [
        {
          "internalType": "address",
          "name": "spender",
          "type": "address"
        },
        {
          "internalType": "uint256",
          "name": "amount",
          "type": "uint256"
        }
      ],
      "name": "approve",
      "outputs": [
        {
          "internalType": "bool",
          "name": "",
          "type": "bool"
        }
      ],
      "stateMutability": "nonpayable",
      "type": "function"
    },
    {
      "inputs": [
        {
          "internalType": "address",
          "name": "account",
          "type": "address"
        }
      ],
      "name": "balanceOf",
      "outputs": [
        {
          "internalType": "uint256",
          "name": "",
          "type": "uint256"
        }
      ],
      "stateMutability": "view",
      "type": "function"
    },
    {
      "inputs": [],
      "name": "charityMinimum",
      "outputs": [
        {
          "internalType": "uint256",
          "name": "",
          "type": "uint256"
        }
      ],
      "stateMutability": "view",
      "type": "function"
    },
    {
      "inputs": [],
      "name": "dailyAddress",
      "outputs": [
        {
          "internalType": "address",
          "name": "",
          "type": "address"
        }
      ],
      "stateMutability": "view",
      "type": "function"
    },
    {
      "inputs": [],
      "name": "decimals",
      "outputs": [
        {
          "internalType": "uint8",
          "name": "",
          "type": "uint8"
        }
      ],
      "stateMutability": "view",
      "type": "function"
    },
    {
      "inputs": [
        {
          "internalType": "address",
          "name": "spender",
          "type": "address"
        },
        {
          "internalType": "uint256",
          "name": "subtractedValue",
          "type": "uint256"
        }
      ],
      "name": "decreaseAllowance",
      "outputs": [
        {
          "internalType": "bool",
          "name": "",
          "type": "bool"
        }
      ],
      "stateMutability": "nonpayable",
      "type": "function"
    },
    {
      "inputs": [
        {
          "internalType": "address",
          "name": "account",
          "type": "address"
        }
      ],
      "name": "excludeFromFee",
      "outputs": [],
      "stateMutability": "nonpayable",
      "type": "function"
    },
    {
      "inputs": [
        {
          "internalType": "address",
          "name": "account",
          "type": "address"
        }
      ],
      "name": "excludeFromReward",
      "outputs": [],
      "stateMutability": "nonpayable",
      "type": "function"
    },
    {
      "inputs": [],
      "name": "getTotalReflections",
      "outputs": [
        {
          "internalType": "uint256",
          "name": "",
          "type": "uint256"
        }
      ],
      "stateMutability": "view",
      "type": "function"
    },
    {
      "inputs": [
        {
          "internalType": "uint256",
          "name": "seed",
          "type": "uint256"
        }
      ],
      "name": "getWinner",
      "outputs": [
        {
          "internalType": "address",
          "name": "",
          "type": "address"
        }
      ],
      "stateMutability": "view",
      "type": "function"
    },
    {
      "inputs": [],
      "name": "hourlyAddress",
      "outputs": [
        {
          "internalType": "address",
          "name": "",
          "type": "address"
        }
      ],
      "stateMutability": "view",
      "type": "function"
    },
    {
      "inputs": [],
      "name": "iODINNFT",
      "outputs": [
        {
          "internalType": "contract IODINNFT",
          "name": "",
          "type": "address"
        }
      ],
      "stateMutability": "view",
      "type": "function"
    },
    {
      "inputs": [],
      "name": "iVRFV2RandomGeneration",
      "outputs": [
        {
          "internalType": "contract IVRFV2RandomGeneration",
          "name": "",
          "type": "address"
        }
      ],
      "stateMutability": "view",
      "type": "function"
    },
    {
      "inputs": [
        {
          "internalType": "address",
          "name": "account",
          "type": "address"
        }
      ],
      "name": "includeInFee",
      "outputs": [],
      "stateMutability": "nonpayable",
      "type": "function"
    },
    {
      "inputs": [
        {
          "internalType": "address",
          "name": "account",
          "type": "address"
        }
      ],
      "name": "includeInReward",
      "outputs": [],
      "stateMutability": "nonpayable",
      "type": "function"
    },
    {
      "inputs": [
        {
          "internalType": "address",
          "name": "spender",
          "type": "address"
        },
        {
          "internalType": "uint256",
          "name": "addedValue",
          "type": "uint256"
        }
      ],
      "name": "increaseAllowance",
      "outputs": [
        {
          "internalType": "bool",
          "name": "",
          "type": "bool"
        }
      ],
      "stateMutability": "nonpayable",
      "type": "function"
    },
    {
      "inputs": [
        {
          "internalType": "address",
          "name": "account",
          "type": "address"
        }
      ],
      "name": "isExcludedFromFee",
      "outputs": [
        {
          "internalType": "bool",
          "name": "",
          "type": "bool"
        }
      ],
      "stateMutability": "view",
      "type": "function"
    },
    {
      "inputs": [
        {
          "internalType": "address",
          "name": "account",
          "type": "address"
        }
      ],
      "name": "isExcludedFromReflection",
      "outputs": [
        {
          "internalType": "bool",
          "name": "",
          "type": "bool"
        }
      ],
      "stateMutability": "view",
      "type": "function"
    },
    {
      "inputs": [
        {
          "internalType": "uint256",
          "name": "",
          "type": "uint256"
        }
      ],
      "name": "levelFees",
      "outputs": [
        {
          "internalType": "uint256",
          "name": "",
          "type": "uint256"
        }
      ],
      "stateMutability": "view",
      "type": "function"
    },
    {
      "inputs": [],
      "name": "lotteryDaily",
      "outputs": [
        {
          "internalType": "uint256",
          "name": "",
          "type": "uint256"
        }
      ],
      "stateMutability": "view",
      "type": "function"
    },
    {
      "inputs": [],
      "name": "lotteryHourly",
      "outputs": [
        {
          "internalType": "uint256",
          "name": "",
          "type": "uint256"
        }
      ],
      "stateMutability": "view",
      "type": "function"
    },
    {
      "inputs": [],
      "name": "lotteryLimitAmount",
      "outputs": [
        {
          "internalType": "uint256",
          "name": "",
          "type": "uint256"
        }
      ],
      "stateMutability": "view",
      "type": "function"
    },
    {
      "inputs": [
        {
          "internalType": "address",
          "name": "_winner",
          "type": "address"
        }
      ],
      "name": "lotteryTransfer",
      "outputs": [],
      "stateMutability": "nonpayable",
      "type": "function"
    },
    {
      "inputs": [],
      "name": "marketingAddress",
      "outputs": [
        {
          "internalType": "address",
          "name": "",
          "type": "address"
        }
      ],
      "stateMutability": "view",
      "type": "function"
    },
    {
      "inputs": [],
      "name": "name",
      "outputs": [
        {
          "internalType": "string",
          "name": "",
          "type": "string"
        }
      ],
      "stateMutability": "view",
      "type": "function"
    },
    {
      "inputs": [],
      "name": "owner",
      "outputs": [
        {
          "internalType": "address",
          "name": "",
          "type": "address"
        }
      ],
      "stateMutability": "view",
      "type": "function"
    },
    {
      "inputs": [],
      "name": "pausedLottery",
      "outputs": [
        {
          "internalType": "bool",
          "name": "",
          "type": "bool"
        }
      ],
      "stateMutability": "view",
      "type": "function"
    },
    {
      "inputs": [
        {
          "internalType": "uint256",
          "name": "tAmount",
          "type": "uint256"
        }
      ],
      "name": "reflect",
      "outputs": [],
      "stateMutability": "nonpayable",
      "type": "function"
    },
    {
      "inputs": [
        {
          "internalType": "uint256",
          "name": "tAmount",
          "type": "uint256"
        },
        {
          "internalType": "bool",
          "name": "deductTransferFee",
          "type": "bool"
        }
      ],
      "name": "reflectionFromToken",
      "outputs": [
        {
          "internalType": "uint256",
          "name": "",
          "type": "uint256"
        }
      ],
      "stateMutability": "view",
      "type": "function"
    },
    {
      "inputs": [],
      "name": "renounceOwnership",
      "outputs": [],
      "stateMutability": "nonpayable",
      "type": "function"
    },
    {
      "inputs": [
        {
          "internalType": "bool",
          "name": "b",
          "type": "bool"
        }
      ],
      "name": "setLiquidity",
      "outputs": [],
      "stateMutability": "nonpayable",
      "type": "function"
    },
    {
      "inputs": [
        {
          "internalType": "address",
          "name": "_dailyAddress",
          "type": "address"
        },
        {
          "internalType": "address",
          "name": "_hourlyAddress",
          "type": "address"
        }
      ],
      "name": "setLotteryAddress",
      "outputs": [],
      "stateMutability": "nonpayable",
      "type": "function"
    },
    {
      "inputs": [
        {
          "internalType": "uint256",
          "name": "_lotteryLimit",
          "type": "uint256"
        }
      ],
      "name": "setLotteryLimit",
      "outputs": [],
      "stateMutability": "nonpayable",
      "type": "function"
    },
    {
      "inputs": [],
      "name": "setLotteryState",
      "outputs": [],
      "stateMutability": "nonpayable",
      "type": "function"
    },
    {
      "inputs": [
        {
          "internalType": "address",
          "name": "_marketingAddress",
          "type": "address"
        }
      ],
      "name": "setMarketingAddress",
      "outputs": [],
      "stateMutability": "nonpayable",
      "type": "function"
    },
    {
      "inputs": [
        {
          "internalType": "uint256",
          "name": "taxFee",
          "type": "uint256"
        }
      ],
      "name": "setMarketingTaxFeePercent",
      "outputs": [],
      "stateMutability": "nonpayable",
      "type": "function"
    },
    {
      "inputs": [
        {
          "internalType": "uint256",
          "name": "maxTxAmount",
          "type": "uint256"
        }
      ],
      "name": "setMaxTxAmount",
      "outputs": [],
      "stateMutability": "nonpayable",
      "type": "function"
    },
    {
      "inputs": [
        {
          "internalType": "uint256",
          "name": "taxFee",
          "type": "uint256"
        }
      ],
      "name": "setReflectionTaxFeePerecent",
      "outputs": [],
      "stateMutability": "nonpayable",
      "type": "function"
    },
    {
      "inputs": [
        {
          "internalType": "address",
          "name": "router",
          "type": "address"
        }
      ],
      "name": "setRouterAddress",
      "outputs": [],
      "stateMutability": "nonpayable",
      "type": "function"
    },
    {
      "inputs": [
        {
          "internalType": "address",
          "name": "_stakingAddress",
          "type": "address"
        }
      ],
      "name": "setStakingAddress",
      "outputs": [],
      "stateMutability": "nonpayable",
      "type": "function"
    },
    {
      "inputs": [
        {
          "internalType": "uint256",
          "name": "taxFee",
          "type": "uint256"
        }
      ],
      "name": "setStakingTaxFeePerecent",
      "outputs": [],
      "stateMutability": "nonpayable",
      "type": "function"
    },
    {
      "inputs": [],
      "name": "setWinner",
      "outputs": [],
      "stateMutability": "nonpayable",
      "type": "function"
    },
    {
      "inputs": [],
      "name": "stakingAddress",
      "outputs": [
        {
          "internalType": "address",
          "name": "",
          "type": "address"
        }
      ],
      "stateMutability": "view",
      "type": "function"
    },
    {
      "inputs": [],
      "name": "stakingMinimum",
      "outputs": [
        {
          "internalType": "uint256",
          "name": "",
          "type": "uint256"
        }
      ],
      "stateMutability": "view",
      "type": "function"
    },
    {
      "inputs": [
        {
          "internalType": "uint256",
          "name": "tokenAmount",
          "type": "uint256"
        },
        {
          "internalType": "address",
          "name": "_usdtAddress",
          "type": "address"
        }
      ],
      "name": "swapTokensForUSDT",
      "outputs": [],
      "stateMutability": "nonpayable",
      "type": "function"
    },
    {
      "inputs": [],
      "name": "symbol",
      "outputs": [
        {
          "internalType": "string",
          "name": "",
          "type": "string"
        }
      ],
      "stateMutability": "view",
      "type": "function"
    },
    {
      "inputs": [
        {
          "internalType": "uint256",
          "name": "rAmount",
          "type": "uint256"
        }
      ],
      "name": "tokenFromReflection",
      "outputs": [
        {
          "internalType": "uint256",
          "name": "",
          "type": "uint256"
        }
      ],
      "stateMutability": "view",
      "type": "function"
    },
    {
      "inputs": [],
      "name": "totalSupply",
      "outputs": [
        {
          "internalType": "uint256",
          "name": "",
          "type": "uint256"
        }
      ],
      "stateMutability": "view",
      "type": "function"
    },
    {
      "inputs": [
        {
          "internalType": "address",
          "name": "recipient",
          "type": "address"
        },
        {
          "internalType": "uint256",
          "name": "amount",
          "type": "uint256"
        }
      ],
      "name": "transfer",
      "outputs": [
        {
          "internalType": "bool",
          "name": "",
          "type": "bool"
        }
      ],
      "stateMutability": "nonpayable",
      "type": "function"
    },
    {
      "inputs": [
        {
          "internalType": "address",
          "name": "sender",
          "type": "address"
        },
        {
          "internalType": "address",
          "name": "recipient",
          "type": "address"
        },
        {
          "internalType": "uint256",
          "name": "amount",
          "type": "uint256"
        }
      ],
      "name": "transferFrom",
      "outputs": [
        {
          "internalType": "bool",
          "name": "",
          "type": "bool"
        }
      ],
      "stateMutability": "nonpayable",
      "type": "function"
    },
    {
      "inputs": [
        {
          "internalType": "address",
          "name": "newOwner",
          "type": "address"
        }
      ],
      "name": "transferOwnership",
      "outputs": [],
      "stateMutability": "nonpayable",
      "type": "function"
    },
    {
      "inputs": [],
      "name": "usdtAddress",
      "outputs": [
        {
          "internalType": "address",
          "name": "",
          "type": "address"
        }
      ],
      "stateMutability": "view",
      "type": "function"
    },
    {
      "inputs": [
        {
          "internalType": "address",
          "name": "token",
          "type": "address"
        },
        {
          "internalType": "uint256",
          "name": "amount",
          "type": "uint256"
        }
      ],
      "name": "withdrawAmountForeignToken",
      "outputs": [],
      "stateMutability": "nonpayable",
      "type": "function"
    },
    {
      "inputs": [
        {
          "internalType": "uint256",
          "name": "amount",
          "type": "uint256"
        }
      ],
      "name": "withdrawBNB",
      "outputs": [],
      "stateMutability": "nonpayable",
      "type": "function"
    },
    {
      "inputs": [
        {
          "internalType": "address",
          "name": "token",
          "type": "address"
        }
      ],
      "name": "withdrawForeignToken",
      "outputs": [],
      "stateMutability": "nonpayable",
      "type": "function"
    },
    {
      "stateMutability": "payable",
      "type": "receive"
    }
  ],
  "bytecode": "0x60c060405260076080819052664f64696e65756d60c81b60a09081526200002a91600191906200054c565b506040805180820190915260048082526327a224a760e11b602090920191825262000058916002916200054c565b506003805460ff191660129081179091556200007690600a62000784565b6200008690633b9aca0062000843565b600e8190556200009990600019620008bc565b620000a79060001962000865565b600f55609660118190556032601281905561012c60138190556040805160a0810182529283526064602084015282019290925260c860608201526080810191909152620000f9906014906005620005db565b50601480546200010c916018916200061f565b50600354620001209060ff16600a62000784565b6200012f906298968062000843565b601955600354620001459060ff16600a62000784565b6200015490620f424062000843565b601a556003546200016a9060ff16600a62000784565b620001789061271062000843565b601b556003546200018e9060ff16600a62000784565b6200019c9061271062000843565b601c55601d805460ff191690556019601f55604b60209081556023805460ff60a01b1916600160a01b179055600e546200020491606491620001f0916103e891839160019062002061620004c8821b17901c565b620004df60201b6200206d1790919060201c565b6024553480156200021457600080fd5b5060405162003ff838038062003ff88339810160408190526200023791620006b4565b6200024233620004ed565b602180546001600160a01b038088166001600160a01b0319928316179092556022805485841690831681179091556023805483169091179055600680548484169083161790556005805486841692169190911790556003546040805163c45a015560e01b8152905187936101009093049092169163c45a015591600480820192602092909190829003018186803b158015620002dd57600080fd5b505afa158015620002f2573d6000803e3d6000fd5b505050506040513d601f19601f8201168201806040525081019062000318919062000696565b6005546040516364e329cb60e11b81523060048201526001600160a01b03918216602482015291169063c9c6539690604401602060405180830381600087803b1580156200036557600080fd5b505af11580156200037a573d6000803e3d6000fd5b505050506040513d601f19601f82011682018060405250810190620003a0919062000696565b600480546001600160a01b0319166001600160a01b0392831617905560038054610100600160a81b03191661010092841692909202919091179055600f5460086000620003ea3390565b6001600160a01b03166001600160a01b03168152602001908152602001600020819055506001600b6000620004246200053d60201b60201c565b6001600160a01b0316815260208082019290925260409081016000908120805494151560ff19958616179055308152600b9092529020805490911660011790556200046c3390565b6001600160a01b031660006001600160a01b03167fddf252ad1be2c89b69c2b068fc378daa952ba7f163c4a11628f55a4df523b3ef600e54604051620004b491815260200190565b60405180910390a3505050505050620008ff565b6000620004d6828462000843565b90505b92915050565b6000620004d6828462000724565b600080546001600160a01b038381166001600160a01b0319831681178455604051919092169283917f8be0079c531659141344cd1fd0a4f28419497f9722a3daafe3b4186f6b6457e09190a35050565b6000546001600160a01b031690565b8280546200055a906200087f565b90600052602060002090601f0160209004810192826200057e5760008555620005c9565b82601f106200059957805160ff1916838001178555620005c9565b82800160010185558215620005c9579182015b82811115620005c9578251825591602001919060010190620005ac565b50620005d792915062000662565b5090565b828054828255906000526020600020908101928215620005c9579160200282015b82811115620005c9578251829061ffff16905591602001919060010190620005fc565b828054828255906000526020600020908101928215620005c95760005260206000209182015b82811115620005c957825482559160010191906001019062000645565b5b80821115620005d7576000815560010162000663565b80516001600160a01b03811681146200069157600080fd5b919050565b600060208284031215620006a957600080fd5b620004d68262000679565b600080600080600060a08688031215620006cd57600080fd5b620006d88662000679565b9450620006e86020870162000679565b9350620006f86040870162000679565b9250620007086060870162000679565b9150620007186080870162000679565b90509295509295909350565b600082620007365762000736620008e9565b500490565b600181815b808511156200077c578160001904821115620007605762000760620008d3565b808516156200076e57918102915b93841c939080029062000740565b509250929050565b6000620004d660ff841683600082620007a057506001620004d9565b81620007af57506000620004d9565b8160018114620007c85760028114620007d357620007f3565b6001915050620004d9565b60ff841115620007e757620007e7620008d3565b50506001821b620004d9565b5060208310610133831016604e8410600b841016171562000818575081810a620004d9565b6200082483836200073b565b80600019048211156200083b576200083b620008d3565b029392505050565b6000816000190483118215151615620008605762000860620008d3565b500290565b6000828210156200087a576200087a620008d3565b500390565b600181811c908216806200089457607f821691505b60208210811415620008b657634e487b7160e01b600052602260045260246000fd5b50919050565b600082620008ce57620008ce620008e9565b500690565b634e487b7160e01b600052601160045260246000fd5b634e487b7160e01b600052601260045260246000fd5b6136e9806200090f6000396000f3fe6080604052600436106103bc5760003560e01c80636cd8ceb5116101f2578063a9059cbb1161010d578063ea2f0b37116100a0578063ecf501351161006f578063ecf5013514610b42578063ed05084e14610b57578063f2fde38b14610b6c578063f4e0d9ac14610b8c57600080fd5b8063ea2f0b3714610ac2578063ea5a672214610ae2578063ebdfbea114610b02578063ec28438a14610b2257600080fd5b8063d5d834b2116100dc578063d5d834b214610a26578063d7b4be2414610a3c578063dd62ed3e14610a5c578063e58b719f14610aa257600080fd5b8063a9059cbb146109b0578063ad64598a146109d0578063ae267735146109f1578063ce03d3df14610a0657600080fd5b80638da5cb5b116101855780639baa815c116101545780639baa815c146109305780639d88f3a114610950578063a457c2d714610970578063a5ece9411461099057600080fd5b80638da5cb5b146108bd578063906e9dd0146108db57806395d89b41146108fb5780639ab4a4451461091057600080fd5b80637867a1c2116101c15780637867a1c21461082e5780637d1db4a51461084e5780637d459db314610864578063885a4cd01461089d57600080fd5b80636cd8ceb5146107bf5780636e980344146107d957806370a08231146107f9578063715018a61461081957600080fd5b8063367a4d53116102e257806352390c02116102755780635c6d229d116102445780635c6d229d146107535780635dacf9a31461076957806364ad2bbf1461077f5780636b2d7a1a1461079f57600080fd5b806352390c02146106bf5780635342acb4146106df578063583e0568146107185780635be7aad61461073d57600080fd5b806341cb87fc116102b157806341cb87fc14610649578063437823ec146106695780634549b039146106895780634e514632146106a957600080fd5b8063367a4d53146105c95780633685d419146105e957806339509351146106095780634129b2c91461062957600080fd5b80631a6d76171161035a5780632ffcd37b116103295780632ffcd37b1461055b578063305bfa8c1461057b578063313ce5671461059157806333fddf9a146105b357600080fd5b80631a6d7617146104d65780631db8d714146104fb57806323b872dd1461051b5780632d8381191461053b57600080fd5b8063127f4b2e11610396578063127f4b2e1461044557806314eeb8871461046557806318160ddd146104895780631a2d66c21461049e57600080fd5b8063053ab182146103c857806306fdde03146103ea578063095ea7b31461041557600080fd5b366103c357005b600080fd5b3480156103d457600080fd5b506103e86103e3366004613369565b610bac565b005b3480156103f657600080fd5b506103ff610c85565b60405161040c9190613413565b60405180910390f35b34801561042157600080fd5b50610435610430366004613303565b610d17565b604051901515815260200161040c565b34801561045157600080fd5b506103e8610460366004613369565b610d2e565b34801561047157600080fd5b5061047b601c5481565b60405190815260200161040c565b34801561049557600080fd5b50600e5461047b565b3480156104aa57600080fd5b506021546104be906001600160a01b031681565b6040516001600160a01b03909116815260200161040c565b3480156104e257600080fd5b50601d546104be9061010090046001600160a01b031681565b34801561050757600080fd5b506023546104be906001600160a01b031681565b34801561052757600080fd5b506104356105363660046132c2565b610dc3565b34801561054757600080fd5b5061047b610556366004613369565b610ebc565b34801561056757600080fd5b50601e546104be906001600160a01b031681565b34801561058757600080fd5b5061047b601b5481565b34801561059d57600080fd5b5060035460405160ff909116815260200161040c565b3480156105bf57600080fd5b5061047b60205481565b3480156105d557600080fd5b506103e86105e4366004613369565b610f40565b3480156105f557600080fd5b506103e861060436600461324f565b610f4d565b34801561061557600080fd5b50610435610624366004613303565b6110de565b34801561063557600080fd5b506104be610644366004613369565b611114565b34801561065557600080fd5b506103e861066436600461324f565b6113ad565b34801561067557600080fd5b506103e861068436600461324f565b6115f3565b34801561069557600080fd5b5061047b6106a43660046133c0565b61161f565b3480156106b557600080fd5b5061047b60115481565b3480156106cb57600080fd5b506103e86106da36600461324f565b6116a9565b3480156106eb57600080fd5b506104356106fa36600461324f565b6001600160a01b03166000908152600b602052604090205460ff1690565b34801561072457600080fd5b506003546104be9061010090046001600160a01b031681565b34801561074957600080fd5b5061047b601f5481565b34801561075f57600080fd5b5061047b60125481565b34801561077557600080fd5b5061047b601a5481565b34801561078b57600080fd5b506103e861079a36600461332f565b6117da565b3480156107ab57600080fd5b506103e86107ba366004613369565b611800565b3480156107cb57600080fd5b50601d546104359060ff1681565b3480156107e557600080fd5b506103e86107f4366004613369565b61180d565b34801561080557600080fd5b5061047b61081436600461324f565b61181a565b34801561082557600080fd5b506103e8611879565b34801561083a57600080fd5b506103e861084936600461324f565b61188d565b34801561085a57600080fd5b5061047b60195481565b34801561087057600080fd5b5061043561087f36600461324f565b6001600160a01b03166000908152600c602052604090205460ff1690565b3480156108a957600080fd5b506103e86108b836600461324f565b611ac4565b3480156108c957600080fd5b506000546001600160a01b03166104be565b3480156108e757600080fd5b506103e86108f636600461324f565b611c24565b34801561090757600080fd5b506103ff611c4e565b34801561091c57600080fd5b506005546104be906001600160a01b031681565b34801561093c57600080fd5b506103e861094b36600461339b565b611c5d565b34801561095c57600080fd5b506103e861096b366004613289565b611d4a565b34801561097c57600080fd5b5061043561098b366004613303565b611d8a565b34801561099c57600080fd5b506006546104be906001600160a01b031681565b3480156109bc57600080fd5b506104356109cb366004613303565b611dd9565b3480156109dc57600080fd5b5060235461043590600160a01b900460ff1681565b3480156109fd57600080fd5b5060105461047b565b348015610a1257600080fd5b5061047b610a21366004613369565b611de6565b348015610a3257600080fd5b5061047b60135481565b348015610a4857600080fd5b506007546104be906001600160a01b031681565b348015610a6857600080fd5b5061047b610a77366004613289565b6001600160a01b039182166000908152600a6020908152604080832093909416825291909152205490565b348015610aae57600080fd5b506103e8610abd366004613369565b611e07565b348015610ace57600080fd5b506103e8610add36600461324f565b611e14565b348015610aee57600080fd5b506004546104be906001600160a01b031681565b348015610b0e57600080fd5b506103e8610b1d366004613303565b611e3d565b348015610b2e57600080fd5b506103e8610b3d366004613369565b611f23565b348015610b4e57600080fd5b506103e8611f30565b348015610b6357600080fd5b506103e8611f4c565b348015610b7857600080fd5b506103e8610b8736600461324f565b611fbe565b348015610b9857600080fd5b506103e8610ba736600461324f565b612037565b336000908152600c602052604090205460ff1615610c265760405162461bcd60e51b815260206004820152602c60248201527f4578636c75646564206164647265737365732063616e6e6f742063616c6c207460448201526b3434b990333ab731ba34b7b760a11b60648201526084015b60405180910390fd5b6000610c3182612079565b805133600090815260086020526040902054919250610c5091906120fc565b336000908152600860205260409020558051600f54610c6e916120fc565b600f55601054610c7e9083612108565b6010555050565b606060018054610c9490613581565b80601f0160208091040260200160405190810160405280929190818152602001828054610cc090613581565b8015610d0d5780601f10610ce257610100808354040283529160200191610d0d565b820191906000526020600020905b815481529060010190602001808311610cf057829003601f168201915b5050505050905090565b6000610d24338484612114565b5060015b92915050565b610d36612238565b60008111610d865760405162461bcd60e51b815260206004820152601760248201527f4f64696e65756d3a20426967676572207468616e20302e0000000000000000006044820152606401610c1d565b600080546040516001600160a01b039091169183156108fc02918491818181858888f19350505050158015610dbf573d6000803e3d6000fd5b5050565b6001600160a01b0383166000908152600b602052604081205460ff1680610e1757506064600e546001610df6919061354b565b610e009190613537565b82610e0a8561181a565b610e14919061351f565b11155b610e555760405162461bcd60e51b815260206004820152600f60248201526e13dd995c999b1bddc8185b5bdd5b9d608a1b6044820152606401610c1d565b610e60848484612292565b610eb28433610ead85604051806060016040528060288152602001613667602891396001600160a01b038a166000908152600a6020908152604080832033845290915290205491906124af565b612114565b5060019392505050565b6000600f54821115610f235760405162461bcd60e51b815260206004820152602a60248201527f416d6f756e74206d757374206265206c657373207468616e20746f74616c207260448201526965666c656374696f6e7360b01b6064820152608401610c1d565b6000610f2d6124db565b9050610f39838261206d565b9392505050565b610f48612238565b601355565b610f55612238565b6001600160a01b0381166000908152600c602052604090205460ff16610fbd5760405162461bcd60e51b815260206004820152601b60248201527f4163636f756e7420697320616c726561647920696e636c7564656400000000006044820152606401610c1d565b60005b600d54811015610dbf57816001600160a01b0316600d8281548110610fe757610fe761362d565b6000918252602090912001546001600160a01b031614156110cc57600d80546110129060019061356a565b815481106110225761102261362d565b600091825260209091200154600d80546001600160a01b03909216918390811061104e5761104e61362d565b600091825260208083209190910180546001600160a01b0319166001600160a01b039485161790559184168152600982526040808220829055600c90925220805460ff19169055600d8054806110a6576110a6613617565b600082815260209020810160001990810180546001600160a01b03191690550190555050565b806110d6816135bc565b915050610fc0565b336000818152600a602090815260408083206001600160a01b03871684529091528120549091610d24918590610ead9086612108565b601d5460009060ff161561115f5760405162461bcd60e51b81526020600482015260126024820152712637ba3a32b93c9034b9903830bab9b2b21760711b6044820152606401610c1d565b601d5461010090046001600160a01b03163314806111875750601e546001600160a01b031633145b6111a35760405162461bcd60e51b8152600401610c1d90613468565b602154604080516318160ddd60e01b815290516000926001600160a01b0316916318160ddd916004808301926020929190829003018186803b1580156111e857600080fd5b505afa1580156111fc573d6000803e3d6000fd5b505050506040513d601f19601f820116820180604052508101906112209190613382565b9050600181116112805760405162461bcd60e51b815260206004820152602560248201527f486f6c6465727320617265206e6f7420656e6f75676820746f2072756e206c6f604482015264747465727960d81b6064820152608401610c1d565b600061128d60018361356a565b9050600061132182602360009054906101000a90046001600160a01b03166001600160a01b031663ce10b1fb6040518163ffffffff1660e01b815260040160206040518083038186803b1580156112e357600080fd5b505afa1580156112f7573d6000803e3d6000fd5b505050506040513d601f19601f8201168201806040525081019061131b9190613382565b906124fe565b6021546040516331a9108f60e11b8152600481018390529192506000916001600160a01b0390911690636352211e9060240160206040518083038186803b15801561136b57600080fd5b505afa15801561137f573d6000803e3d6000fd5b505050506040513d601f19601f820116820180604052508101906113a3919061326c565b9695505050505050565b6113b5612238565b60008190506000816001600160a01b031663c45a01556040518163ffffffff1660e01b815260040160206040518083038186803b1580156113f557600080fd5b505afa158015611409573d6000803e3d6000fd5b505050506040513d601f19601f8201168201806040525081019061142d919061326c565b60055460405163e6a4390560e01b81523060048201526001600160a01b03918216602482015291169063e6a439059060440160206040518083038186803b15801561147757600080fd5b505afa15801561148b573d6000803e3d6000fd5b505050506040513d601f19601f820116820180604052508101906114af919061326c565b90506001600160a01b0381166115b757816001600160a01b031663c45a01556040518163ffffffff1660e01b815260040160206040518083038186803b1580156114f857600080fd5b505afa15801561150c573d6000803e3d6000fd5b505050506040513d601f19601f82011682018060405250810190611530919061326c565b6005546040516364e329cb60e11b81523060048201526001600160a01b03918216602482015291169063c9c6539690604401602060405180830381600087803b15801561157c57600080fd5b505af1158015611590573d6000803e3d6000fd5b505050506040513d601f19601f820116820180604052508101906115b4919061326c565b90505b600480546001600160a01b0319166001600160a01b0392831617905560038054610100600160a81b031916610100939092169290920217905550565b6115fb612238565b6001600160a01b03166000908152600b60205260409020805460ff19166001179055565b6000600e548311156116735760405162461bcd60e51b815260206004820152601f60248201527f416d6f756e74206d757374206265206c657373207468616e20737570706c79006044820152606401610c1d565b61167b61315e565b826116935761168984612079565b519150610d289050565b61169c84612079565b602001519150610d289050565b6116b1612238565b6001600160a01b0381166000908152600c602052604090205460ff161561171a5760405162461bcd60e51b815260206004820152601b60248201527f4163636f756e7420697320616c7265616479206578636c7564656400000000006044820152606401610c1d565b6001600160a01b03811660009081526008602052604090205415611774576001600160a01b03811660009081526008602052604090205461175a90610ebc565b6001600160a01b0382166000908152600960205260409020555b6001600160a01b03166000818152600c60205260408120805460ff19166001908117909155600d805491820181559091527fd7b6990105719101dabeb77144f2a3385c8033acd3af97e9423a695e81ad1eb50180546001600160a01b0319169091179055565b6117e2612238565b60238054911515600160a01b0260ff60a01b19909216919091179055565b611808612238565b601a55565b611815612238565b601255565b6001600160a01b0381166000908152600c602052604081205460ff161561185757506001600160a01b031660009081526009602052604090205490565b6001600160a01b038216600090815260086020526040902054610d2890610ebc565b611881612238565b61188b600061250a565b565b601d5460ff16156118d55760405162461bcd60e51b81526020600482015260126024820152712637ba3a32b93c9034b9903830bab9b2b21760711b6044820152606401610c1d565b601d5461010090046001600160a01b03163314806118fd5750601e546001600160a01b031633145b6119195760405162461bcd60e51b8152600401610c1d90613468565b601a546119258261181a565b101561198a5760405162461bcd60e51b815260206004820152602e60248201527f43616e206e6f7420626520612077696e6e65722066726f6d207468652065666660448201526d696369656e742062616c616e636560901b6064820152608401610c1d565b6000806119963061181a565b60215460405163df61108360e01b81526001600160a01b0386811660048301529293506000929091169063df6110839060240160206040518083038186803b1580156119e157600080fd5b505afa1580156119f5573d6000803e3d6000fd5b505050506040513d601f19601f82011682018060405250810190611a199190613382565b9050801580611a285750600681115b15611a335750505050565b60006014611a4260018461356a565b81548110611a5257611a5261362d565b600091825260209091200154601f54601d549192509061010090046001600160a01b0316336001600160a01b03161415611a8b57506020545b611aad6305f5e100611aa783611aa18887612061565b90612061565b9061206d565b9450611abc308787600161255a565b505050505050565b611acc612238565b306001600160a01b0382161415611b255760405162461bcd60e51b815260206004820152601c60248201527f43616e6e6f74207769746864726177206e617469766520746f6b656e000000006044820152606401610c1d565b6040516370a0823160e01b81523060048201526001600160a01b0382169063a9059cbb90339083906370a082319060240160206040518083038186803b158015611b6e57600080fd5b505afa158015611b82573d6000803e3d6000fd5b505050506040513d601f19601f82011682018060405250810190611ba69190613382565b6040516001600160e01b031960e085901b1681526001600160a01b0390921660048301526024820152604401602060405180830381600087803b158015611bec57600080fd5b505af1158015611c00573d6000803e3d6000fd5b505050506040513d601f19601f82011682018060405250810190610dbf919061334c565b611c2c612238565b600680546001600160a01b0319166001600160a01b0392909216919091179055565b606060028054610c9490613581565b6040805160028082526060820183526000926020830190803683370190505090503081600081518110611c9257611c9261362d565b60200260200101906001600160a01b031690816001600160a01b0316815250508181600181518110611cc657611cc661362d565b6001600160a01b039283166020918202929092010152600354604051635c11d79560e01b815261010090910490911690635c11d79590611d139086906000908690309042906004016134ae565b600060405180830381600087803b158015611d2d57600080fd5b505af1158015611d41573d6000803e3d6000fd5b50505050505050565b611d52612238565b601d8054610100600160a81b0319166101006001600160a01b0394851602179055601e80546001600160a01b03191691909216179055565b6000610d243384610ead8560405180606001604052806025815260200161368f60259139336000908152600a602090815260408083206001600160a01b038d16845290915290205491906124af565b6000610d24338484612292565b60148181548110611df657600080fd5b600091825260209091200154905081565b611e0f612238565b601155565b611e1c612238565b6001600160a01b03166000908152600b60205260409020805460ff19169055565b611e45612238565b306001600160a01b0383161415611e9e5760405162461bcd60e51b815260206004820152601c60248201527f43616e6e6f74207769746864726177206e617469766520746f6b656e000000006044820152606401610c1d565b60405163a9059cbb60e01b8152336004820152602481018290526001600160a01b0383169063a9059cbb90604401602060405180830381600087803b158015611ee657600080fd5b505af1158015611efa573d6000803e3d6000fd5b505050506040513d601f19601f82011682018060405250810190611f1e919061334c565b505050565b611f2b612238565b601955565b611f38612238565b601d805460ff19811660ff90911615179055565b611f54612238565b602360009054906101000a90046001600160a01b03166001600160a01b031663e0c862896040518163ffffffff1660e01b8152600401600060405180830381600087803b158015611fa457600080fd5b505af1158015611fb8573d6000803e3d6000fd5b50505050565b611fc6612238565b6001600160a01b03811661202b5760405162461bcd60e51b815260206004820152602660248201527f4f776e61626c653a206e6577206f776e657220697320746865207a65726f206160448201526564647265737360d01b6064820152608401610c1d565b6120348161250a565b50565b61203f612238565b600780546001600160a01b0319166001600160a01b0392909216919091179055565b6000610f39828461354b565b6000610f398284613537565b61208161315e565b60008060008061209086612746565b935093509350935060008060008060006120ac8b89898961279b565b60408051610120810182529586526020860194909452928401919091526060830152608082015260a08101999099525050505060c085019390935260e08401919091526101008301525092915050565b6000610f39828461356a565b6000610f39828461351f565b6001600160a01b0383166121765760405162461bcd60e51b8152602060048201526024808201527f45524332303a20617070726f76652066726f6d20746865207a65726f206164646044820152637265737360e01b6064820152608401610c1d565b6001600160a01b0382166121d75760405162461bcd60e51b815260206004820152602260248201527f45524332303a20617070726f766520746f20746865207a65726f206164647265604482015261737360f01b6064820152608401610c1d565b6001600160a01b038381166000818152600a602090815260408083209487168084529482529182902085905590518481527f8c5be1e5ebec7d5bd14f71427d1e84f3dd0314c0f7b2291e5b200ac8c7c3b925910160405180910390a3505050565b6000546001600160a01b0316331461188b5760405162461bcd60e51b815260206004820181905260248201527f4f776e61626c653a2063616c6c6572206973206e6f7420746865206f776e65726044820152606401610c1d565b6001600160a01b0383166122f65760405162461bcd60e51b815260206004820152602560248201527f45524332303a207472616e736665722066726f6d20746865207a65726f206164604482015264647265737360d81b6064820152608401610c1d565b6001600160a01b0382166123585760405162461bcd60e51b815260206004820152602360248201527f45524332303a207472616e7366657220746f20746865207a65726f206164647260448201526265737360e81b6064820152608401610c1d565b600081116123ba5760405162461bcd60e51b815260206004820152602960248201527f5472616e7366657220616d6f756e74206d7573742062652067726561746572206044820152687468616e207a65726f60b81b6064820152608401610c1d565b6000546001600160a01b038481169116148015906123e657506000546001600160a01b03838116911614155b1561244e5760195481111561244e5760405162461bcd60e51b815260206004820152602860248201527f5472616e7366657220616d6f756e74206578636565647320746865206d6178546044820152673c20b6b7bab73a1760c11b6064820152608401610c1d565b6124588383612810565b6001600160a01b0383166000908152600b602052604090205460019060ff168061249a57506001600160a01b0383166000908152600b602052604090205460ff165b156124a3575060005b611fb88484848461255a565b600081848411156124d35760405162461bcd60e51b8152600401610c1d9190613413565b505050900390565b60008060006124e8612890565b90925090506124f7828261206d565b9250505090565b6000610f3982846135d7565b600080546001600160a01b038381166001600160a01b0319831681178455604051919092169283917f8be0079c531659141344cd1fd0a4f28419497f9722a3daafe3b4186f6b6457e09190a35050565b8061256757612567612a12565b600061257283612079565b6001600160a01b0386166000908152600c602052604090205490915060ff16156125d3576001600160a01b0385166000908152600960205260409020546125b990846120fc565b6001600160a01b0386166000908152600960205260409020555b80516001600160a01b0386166000908152600860205260409020546125f7916120fc565b6001600160a01b038087166000908152600860209081526040808320949094559187168152600c909152205460ff161561266c5760a08101516001600160a01b03851660009081526009602052604090205461265291612108565b6001600160a01b0385166000908152600960205260409020555b6020808201516001600160a01b0386166000908152600890925260409091205461269591612108565b6001600160a01b03851660009081526008602052604090205581156126e1576126c18160c00151612a7b565b6126cf816101000151612cc1565b6126e181606001518260e00151612e5c565b816126ee576126ee612e79565b836001600160a01b0316856001600160a01b03167fddf252ad1be2c89b69c2b068fc378daa952ba7f163c4a11628f55a4df523b3ef8360a0015160405161273791815260200190565b60405180910390a35050505050565b6000808080848161275682612e9b565b9050600061276388612eb8565b9050600061277089612ed5565b9050600061278a82612784858189896120fc565b906120fc565b9a9399509197509550909350505050565b6000806000806000806127ac6124db565b905060006127ba8b83612061565b905060006127c88b84612061565b905060006127d68b85612061565b905060006127e48b86612061565b905060006127f882612784858189896120fc565b949f949e50929c50909a509850909650505050505050565b600061281b3061181a565b6024546019549192508210159082106128345760195491505b80801561284f57506004546001600160a01b03858116911614155b801561287d57506001600160a01b0384163014801561287b57506004546001600160a01b038481169116145b155b15611fb8576024549150611fb882612ef2565b600f54600e546000918291825b600d548110156129e2578260086000600d84815481106128bf576128bf61362d565b60009182526020808320909101546001600160a01b03168352820192909252604001902054118061292a57508160096000600d84815481106129035761290361362d565b60009182526020808320909101546001600160a01b03168352820192909252604001902054115b1561294057600f54600e54945094505050509091565b61298660086000600d848154811061295a5761295a61362d565b60009182526020808320909101546001600160a01b0316835282019290925260400190205484906120fc565b92506129ce60096000600d84815481106129a2576129a261362d565b60009182526020808320909101546001600160a01b0316835282019290925260400190205483906120fc565b9150806129da816135bc565b91505061289d565b50600e54600f546129f29161206d565b821015612a0957600f54600e549350935050509091565b90939092509050565b601154612a1b57565b601180546015556012805460165560138054601755600092839055908290558190556040805160c08101825282815260208101839052908101829052606081018290526080810182905260a08101919091526120349060149060066131aa565b6000612a856124db565b90506000612a938383612061565b6006546001600160a01b0316600090815260086020526040902054909150612abb9082612108565b6006546001600160a01b039081166000908152600860205260408082209390935560055492516370a0823160e01b81523060048201529092909116906370a082319060240160206040518083038186803b158015612b1857600080fd5b505afa158015612b2c573d6000803e3d6000fd5b505050506040513d601f19601f82011682018060405250810190612b509190613382565b601b5460065491925090612b6c906001600160a01b031661181a565b10611fb857600654612b9b90612b8a906001600160a01b031661181a565b6005546001600160a01b0316611c5d565b6005546040516370a0823160e01b8152306004820152600091612c1e9184916001600160a01b0316906370a08231906024015b60206040518083038186803b158015612be657600080fd5b505afa158015612bfa573d6000803e3d6000fd5b505050506040513d601f19601f820116820180604052508101906127849190613382565b600680546001600160a01b03908116600090815260086020526040808220919091556005549254905163a9059cbb60e01b8152908216600482015260248101849052929350169063a9059cbb906044015b602060405180830381600087803b158015612c8957600080fd5b505af1158015612c9d573d6000803e3d6000fd5b505050506040513d601f19601f82011682018060405250810190611abc919061334c565b6000612ccb6124db565b90506000612cd98383612061565b6007546001600160a01b0316600090815260086020526040902054909150612d019082612108565b6007546001600160a01b039081166000908152600860205260408082209390935560055492516370a0823160e01b81523060048201529092909116906370a082319060240160206040518083038186803b158015612d5e57600080fd5b505afa158015612d72573d6000803e3d6000fd5b505050506040513d601f19601f82011682018060405250810190612d969190613382565b601c5460075491925090612db2906001600160a01b031661181a565b10611fb857600754612dd090612b8a906001600160a01b031661181a565b6005546040516370a0823160e01b8152306004820152600091612e079184916001600160a01b0316906370a0823190602401612bce565b600780546001600160a01b03908116600090815260086020526040808220919091556005549254905163a9059cbb60e01b8152908216600482015260248101849052929350169063a9059cbb90604401612c6f565b600f54612e6990836120fc565b600f55601054610c7e9082612108565b60155460115560165460125560175460135560188054612034916014916131fa565b6000610d28612710611aa76011548561206190919063ffffffff16565b6000610d28612710611aa76013548561206190919063ffffffff16565b6000610d28612710611aa76012548561206190919063ffffffff16565b6000612eff82600261206d565b90506000612f126002611aa785856120fc565b90506000612f2084836120fc565b90506000612f2e8484612108565b6005546040516370a0823160e01b81523060048201529192506000916001600160a01b03909116906370a082319060240160206040518083038186803b158015612f7757600080fd5b505afa158015612f8b573d6000803e3d6000fd5b505050506040513d601f19601f82011682018060405250810190612faf9190613382565b600554909150612fc99083906001600160a01b0316611c5d565b6005546040516370a0823160e01b81523060048201526000916130009184916001600160a01b0316906370a0823190602401612bce565b9050600061300f82600361206d565b905061303a6130266000546001600160a01b031690565b60055487906001600160a01b031684613085565b60408051878152602081018490529081018690527f17bbfb9a6069321b6ded73bd96327c9e6b7212a5cd51ff219cd61370acafb5619060600160405180910390a15050505050505050565b60035461010090046001600160a01b031663e8e33700308486856000808b6130af4261016861351f565b60405160e08a901b6001600160e01b03191681526001600160a01b039889166004820152968816602488015260448701959095526064860193909352608485019190915260a484015290921660c482015260e481019190915261010401606060405180830381600087803b15801561312657600080fd5b505af115801561313a573d6000803e3d6000fd5b505050506040513d601f19601f82011682018060405250810190611d4191906133e5565b6040518061012001604052806000815260200160008152602001600081526020016000815260200160008152602001600081526020016000815260200160008152602001600081525090565b8280548282559060005260206000209081019282156131ea579160200282015b828111156131ea578251829060ff169055916020019190600101906131ca565b506131f692915061323a565b5090565b8280548282559060005260206000209081019282156131ea5760005260206000209182015b828111156131ea57825482559160010191906001019061321f565b5b808211156131f6576000815560010161323b565b60006020828403121561326157600080fd5b8135610f3981613643565b60006020828403121561327e57600080fd5b8151610f3981613643565b6000806040838503121561329c57600080fd5b82356132a781613643565b915060208301356132b781613643565b809150509250929050565b6000806000606084860312156132d757600080fd5b83356132e281613643565b925060208401356132f281613643565b929592945050506040919091013590565b6000806040838503121561331657600080fd5b823561332181613643565b946020939093013593505050565b60006020828403121561334157600080fd5b8135610f3981613658565b60006020828403121561335e57600080fd5b8151610f3981613658565b60006020828403121561337b57600080fd5b5035919050565b60006020828403121561339457600080fd5b5051919050565b600080604083850312156133ae57600080fd5b8235915060208301356132b781613643565b600080604083850312156133d357600080fd5b8235915060208301356132b781613658565b6000806000606084860312156133fa57600080fd5b8351925060208401519150604084015190509250925092565b600060208083528351808285015260005b8181101561344057858101830151858201604001528201613424565b81811115613452576000604083870101525b50601f01601f1916929092016040019392505050565b60208082526026908201527f43616e206f6e6c792062652063616c6c6564206279206c6f747465727920636f6040820152651b9d1c9858dd60d21b606082015260800190565b600060a082018783526020878185015260a0604085015281875180845260c086019150828901935060005b818110156134fe5784516001600160a01b0316835293830193918301916001016134d9565b50506001600160a01b03969096166060850152505050608001529392505050565b60008219821115613532576135326135eb565b500190565b60008261354657613546613601565b500490565b6000816000190483118215151615613565576135656135eb565b500290565b60008282101561357c5761357c6135eb565b500390565b600181811c9082168061359557607f821691505b602082108114156135b657634e487b7160e01b600052602260045260246000fd5b50919050565b60006000198214156135d0576135d06135eb565b5060010190565b6000826135e6576135e6613601565b500690565b634e487b7160e01b600052601160045260246000fd5b634e487b7160e01b600052601260045260246000fd5b634e487b7160e01b600052603160045260246000fd5b634e487b7160e01b600052603260045260246000fd5b6001600160a01b038116811461203457600080fd5b801515811461203457600080fdfe45524332303a207472616e7366657220616d6f756e74206578636565647320616c6c6f77616e636545524332303a2064656372656173656420616c6c6f77616e63652062656c6f77207a65726fa26469706673582212203e6ce3a140670e89893072edf0f4bf9f2e135a044e683b05879ded2d5ee3518964736f6c63430008070033",
  "linkReferences": {},
  "deployedLinkReferences": {}
}