{
  "_format": "hh-sol-artifact-1",
  "contractName": "OdinMarketplace",
  "sourceName": "contracts/OdinMarketplace.sol",
  "abi": [
    {
      "inputs": [
        {
          "internalType": "address",
          "name": "nftContract_",
          "type": "address"
        },
        {
          "internalType": "address",
          "name": "adminRecoveryAddress_",
          "type": "address"
        },
        {
          "internalType": "address",
          "name": "ethPaymentAddress_",
          "type": "address"
        },
        {
          "internalType": "address",
          "name": "ethTokenAddress_",
          "type": "address"
        },
        {
          "internalType": "address",
          "name": "developmentAddress_",
          "type": "address"
        }
      ],
      "stateMutability": "nonpayable",
      "type": "constructor"
    },
    {
      "anonymous": false,
      "inputs": [
        {
          "indexed": true,
          "internalType": "uint256",
          "name": "tokenId",
          "type": "uint256"
        },
        {
          "indexed": false,
          "internalType": "address",
          "name": "nftContractAddress",
          "type": "address"
        },
        {
          "indexed": false,
          "internalType": "address",
          "name": "sender",
          "type": "address"
        },
        {
          "indexed": false,
          "internalType": "uint256",
          "name": "value",
          "type": "uint256"
        }
      ],
      "name": "AuctionBid",
      "type": "event"
    },
    {
      "anonymous": false,
      "inputs": [
        {
          "indexed": true,
          "internalType": "uint256",
          "name": "tokenId",
          "type": "uint256"
        },
        {
          "indexed": false,
          "internalType": "address",
          "name": "nftContractAddress",
          "type": "address"
        },
        {
          "indexed": false,
          "internalType": "address",
          "name": "Creator",
          "type": "address"
        }
      ],
      "name": "AuctionCanceled",
      "type": "event"
    },
    {
      "anonymous": false,
      "inputs": [
        {
          "indexed": true,
          "internalType": "uint256",
          "name": "tokenId",
          "type": "uint256"
        },
        {
          "indexed": false,
          "internalType": "uint256",
          "name": "auctionStart",
          "type": "uint256"
        },
        {
          "indexed": false,
          "internalType": "uint256",
          "name": "duration",
          "type": "uint256"
        },
        {
          "indexed": false,
          "internalType": "uint256",
          "name": "reservePrice",
          "type": "uint256"
        },
        {
          "indexed": false,
          "internalType": "string",
          "name": "paymentType",
          "type": "string"
        },
        {
          "indexed": false,
          "internalType": "address",
          "name": "Creator",
          "type": "address"
        }
      ],
      "name": "AuctionCreated",
      "type": "event"
    },
    {
      "anonymous": false,
      "inputs": [
        {
          "indexed": true,
          "internalType": "uint256",
          "name": "tokenId",
          "type": "uint256"
        },
        {
          "indexed": false,
          "internalType": "address",
          "name": "nftContractAddress",
          "type": "address"
        },
        {
          "indexed": false,
          "internalType": "address",
          "name": "Creator",
          "type": "address"
        },
        {
          "indexed": false,
          "internalType": "address",
          "name": "winner",
          "type": "address"
        },
        {
          "indexed": false,
          "internalType": "uint256",
          "name": "amount",
          "type": "uint256"
        },
        {
          "indexed": false,
          "internalType": "address",
          "name": "nftCreator",
          "type": "address"
        }
      ],
      "name": "AuctionEnded",
      "type": "event"
    },
    {
      "anonymous": false,
      "inputs": [
        {
          "indexed": false,
          "internalType": "uint256",
          "name": "nftID",
          "type": "uint256"
        }
      ],
      "name": "Burned",
      "type": "event"
    },
    {
      "anonymous": false,
      "inputs": [
        {
          "indexed": true,
          "internalType": "uint256",
          "name": "tokenId",
          "type": "uint256"
        },
        {
          "indexed": false,
          "internalType": "address",
          "name": "Creator",
          "type": "address"
        },
        {
          "indexed": false,
          "internalType": "uint256",
          "name": "amount",
          "type": "uint256"
        }
      ],
      "name": "CreatorFeePercentTransfer",
      "type": "event"
    },
    {
      "anonymous": false,
      "inputs": [
        {
          "indexed": true,
          "internalType": "address",
          "name": "sender",
          "type": "address"
        },
        {
          "indexed": true,
          "internalType": "address",
          "name": "receiver",
          "type": "address"
        },
        {
          "indexed": false,
          "internalType": "uint256",
          "name": "tokenId",
          "type": "uint256"
        }
      ],
      "name": "Giveaway",
      "type": "event"
    },
    {
      "anonymous": false,
      "inputs": [
        {
          "indexed": true,
          "internalType": "address",
          "name": "minter",
          "type": "address"
        },
        {
          "indexed": false,
          "internalType": "uint256",
          "name": "nftID",
          "type": "uint256"
        },
        {
          "indexed": false,
          "internalType": "bool",
          "name": "status",
          "type": "bool"
        }
      ],
      "name": "Minted",
      "type": "event"
    },
    {
      "anonymous": false,
      "inputs": [
        {
          "indexed": true,
          "internalType": "address",
          "name": "owner",
          "type": "address"
        },
        {
          "indexed": false,
          "internalType": "uint256",
          "name": "nftID",
          "type": "uint256"
        },
        {
          "indexed": false,
          "internalType": "bool",
          "name": "isListed",
          "type": "bool"
        }
      ],
      "name": "NftListStatus",
      "type": "event"
    },
    {
      "anonymous": false,
      "inputs": [
        {
          "indexed": true,
          "internalType": "address",
          "name": "previousOwner",
          "type": "address"
        },
        {
          "indexed": true,
          "internalType": "address",
          "name": "newOwner",
          "type": "address"
        }
      ],
      "name": "OwnershipTransferred",
      "type": "event"
    },
    {
      "anonymous": false,
      "inputs": [
        {
          "indexed": false,
          "internalType": "address",
          "name": "account",
          "type": "address"
        }
      ],
      "name": "Paused",
      "type": "event"
    },
    {
      "anonymous": false,
      "inputs": [
        {
          "indexed": true,
          "internalType": "address",
          "name": "owner",
          "type": "address"
        },
        {
          "indexed": false,
          "internalType": "uint256",
          "name": "oldPrice",
          "type": "uint256"
        },
        {
          "indexed": false,
          "internalType": "uint256",
          "name": "newPrice",
          "type": "uint256"
        },
        {
          "indexed": false,
          "internalType": "uint256",
          "name": "nftID",
          "type": "uint256"
        }
      ],
      "name": "PriceUpdate",
      "type": "event"
    },
    {
      "anonymous": false,
      "inputs": [
        {
          "indexed": true,
          "internalType": "address",
          "name": "previousOwner",
          "type": "address"
        },
        {
          "indexed": true,
          "internalType": "address",
          "name": "newOwner",
          "type": "address"
        },
        {
          "indexed": false,
          "internalType": "uint256",
          "name": "price",
          "type": "uint256"
        },
        {
          "indexed": false,
          "internalType": "uint256",
          "name": "nftID",
          "type": "uint256"
        }
      ],
      "name": "Purchase",
      "type": "event"
    },
    {
      "anonymous": false,
      "inputs": [
        {
          "indexed": false,
          "internalType": "address",
          "name": "",
          "type": "address"
        },
        {
          "indexed": false,
          "internalType": "uint256",
          "name": "",
          "type": "uint256"
        }
      ],
      "name": "Received",
      "type": "event"
    },
    {
      "anonymous": false,
      "inputs": [
        {
          "indexed": false,
          "internalType": "uint256",
          "name": "amount",
          "type": "uint256"
        },
        {
          "indexed": false,
          "internalType": "address",
          "name": "wallet",
          "type": "address"
        }
      ],
      "name": "TokensWithdrawn",
      "type": "event"
    },
    {
      "anonymous": false,
      "inputs": [
        {
          "indexed": false,
          "internalType": "address",
          "name": "account",
          "type": "address"
        }
      ],
      "name": "Unpaused",
      "type": "event"
    },
    {
      "anonymous": false,
      "inputs": [
        {
          "indexed": false,
          "internalType": "uint256",
          "name": "amount",
          "type": "uint256"
        },
        {
          "indexed": false,
          "internalType": "address",
          "name": "wallet",
          "type": "address"
        }
      ],
      "name": "Withdrawn",
      "type": "event"
    },
    {
      "inputs": [],
      "name": "MIN_BID_INCREMENT_PERCENT",
      "outputs": [
        {
          "internalType": "uint8",
          "name": "",
          "type": "uint8"
        }
      ],
      "stateMutability": "view",
      "type": "function"
    },
    {
      "inputs": [],
      "name": "TIME_BUFFER",
      "outputs": [
        {
          "internalType": "uint16",
          "name": "",
          "type": "uint16"
        }
      ],
      "stateMutability": "view",
      "type": "function"
    },
    {
      "inputs": [
        {
          "internalType": "uint256[]",
          "name": "_newtokenIds",
          "type": "uint256[]"
        },
        {
          "internalType": "address[]",
          "name": "_creators",
          "type": "address[]"
        },
        {
          "internalType": "uint256[]",
          "name": "_prices",
          "type": "uint256[]"
        },
        {
          "internalType": "address[]",
          "name": "_owners",
          "type": "address[]"
        },
        {
          "internalType": "uint256[]",
          "name": "_royalties",
          "type": "uint256[]"
        },
        {
          "internalType": "bool[]",
          "name": "_listedMap",
          "type": "bool[]"
        }
      ],
      "name": "addCreatorMap",
      "outputs": [],
      "stateMutability": "nonpayable",
      "type": "function"
    },
    {
      "inputs": [],
      "name": "adminRecoveryEnabled",
      "outputs": [
        {
          "internalType": "bool",
          "name": "",
          "type": "bool"
        }
      ],
      "stateMutability": "view",
      "type": "function"
    },
    {
      "inputs": [
        {
          "internalType": "uint256",
          "name": "",
          "type": "uint256"
        }
      ],
      "name": "auctions",
      "outputs": [
        {
          "internalType": "uint256",
          "name": "amount",
          "type": "uint256"
        },
        {
          "internalType": "uint256",
          "name": "duration",
          "type": "uint256"
        },
        {
          "internalType": "uint256",
          "name": "firstBidTime",
          "type": "uint256"
        },
        {
          "internalType": "uint256",
          "name": "reservePrice",
          "type": "uint256"
        },
        {
          "internalType": "string",
          "name": "paymentType",
          "type": "string"
        },
        {
          "internalType": "uint8",
          "name": "CreatorFeePercent",
          "type": "uint8"
        },
        {
          "internalType": "address",
          "name": "Creator",
          "type": "address"
        },
        {
          "internalType": "address payable",
          "name": "bidder",
          "type": "address"
        },
        {
          "internalType": "address payable",
          "name": "fundsRecipient",
          "type": "address"
        }
      ],
      "stateMutability": "view",
      "type": "function"
    },
    {
      "inputs": [
        {
          "internalType": "uint256",
          "name": "_id",
          "type": "uint256"
        }
      ],
      "name": "burn",
      "outputs": [],
      "stateMutability": "nonpayable",
      "type": "function"
    },
    {
      "inputs": [
        {
          "internalType": "uint256",
          "name": "_id",
          "type": "uint256"
        },
        {
          "internalType": "uint256",
          "name": "_price",
          "type": "uint256"
        },
        {
          "internalType": "string",
          "name": "paymentType",
          "type": "string"
        }
      ],
      "name": "buy",
      "outputs": [],
      "stateMutability": "payable",
      "type": "function"
    },
    {
      "inputs": [
        {
          "internalType": "uint256",
          "name": "tokenId",
          "type": "uint256"
        }
      ],
      "name": "cancelAuction",
      "outputs": [],
      "stateMutability": "nonpayable",
      "type": "function"
    },
    {
      "inputs": [
        {
          "internalType": "uint256",
          "name": "_id",
          "type": "uint256"
        }
      ],
      "name": "closeTrade",
      "outputs": [],
      "stateMutability": "nonpayable",
      "type": "function"
    },
    {
      "inputs": [
        {
          "internalType": "uint256",
          "name": "tokenId",
          "type": "uint256"
        },
        {
          "internalType": "uint256",
          "name": "duration",
          "type": "uint256"
        },
        {
          "internalType": "uint256",
          "name": "reservePrice",
          "type": "uint256"
        },
        {
          "internalType": "string",
          "name": "paymentType",
          "type": "string"
        },
        {
          "internalType": "address",
          "name": "Creator",
          "type": "address"
        }
      ],
      "name": "createAuction",
      "outputs": [],
      "stateMutability": "nonpayable",
      "type": "function"
    },
    {
      "inputs": [
        {
          "internalType": "uint256",
          "name": "tokenId",
          "type": "uint256"
        },
        {
          "internalType": "string",
          "name": "paymentType",
          "type": "string"
        },
        {
          "internalType": "uint256",
          "name": "amount",
          "type": "uint256"
        }
      ],
      "name": "createBid",
      "outputs": [],
      "stateMutability": "payable",
      "type": "function"
    },
    {
      "inputs": [
        {
          "internalType": "uint256",
          "name": "",
          "type": "uint256"
        }
      ],
      "name": "creatorMap",
      "outputs": [
        {
          "internalType": "address",
          "name": "",
          "type": "address"
        }
      ],
      "stateMutability": "view",
      "type": "function"
    },
    {
      "inputs": [],
      "name": "developmentAddress",
      "outputs": [
        {
          "internalType": "address",
          "name": "",
          "type": "address"
        }
      ],
      "stateMutability": "view",
      "type": "function"
    },
    {
      "inputs": [
        {
          "internalType": "uint256",
          "name": "tokenId",
          "type": "uint256"
        }
      ],
      "name": "endAuction",
      "outputs": [],
      "stateMutability": "nonpayable",
      "type": "function"
    },
    {
      "inputs": [
        {
          "internalType": "uint256",
          "name": "_id",
          "type": "uint256"
        }
      ],
      "name": "getIsListed",
      "outputs": [
        {
          "internalType": "bool",
          "name": "",
          "type": "bool"
        }
      ],
      "stateMutability": "view",
      "type": "function"
    },
    {
      "inputs": [
        {
          "internalType": "address",
          "name": "owner",
          "type": "address"
        }
      ],
      "name": "getLimitAmountForPromoter",
      "outputs": [
        {
          "internalType": "uint256",
          "name": "",
          "type": "uint256"
        }
      ],
      "stateMutability": "view",
      "type": "function"
    },
    {
      "inputs": [
        {
          "internalType": "address",
          "name": "owner",
          "type": "address"
        }
      ],
      "name": "getMintAmountForPromoter",
      "outputs": [
        {
          "internalType": "uint256",
          "name": "",
          "type": "uint256"
        }
      ],
      "stateMutability": "view",
      "type": "function"
    },
    {
      "inputs": [
        {
          "internalType": "uint256",
          "name": "_tokenId",
          "type": "uint256"
        }
      ],
      "name": "getSalePrice",
      "outputs": [
        {
          "internalType": "uint256",
          "name": "",
          "type": "uint256"
        }
      ],
      "stateMutability": "view",
      "type": "function"
    },
    {
      "inputs": [
        {
          "internalType": "uint256",
          "name": "_tokenId",
          "type": "uint256"
        }
      ],
      "name": "getTokenPaymentType",
      "outputs": [
        {
          "internalType": "string",
          "name": "",
          "type": "string"
        }
      ],
      "stateMutability": "view",
      "type": "function"
    },
    {
      "inputs": [
        {
          "internalType": "uint256",
          "name": "_tokenId",
          "type": "uint256"
        }
      ],
      "name": "getTokenPrice",
      "outputs": [
        {
          "internalType": "uint256",
          "name": "",
          "type": "uint256"
        }
      ],
      "stateMutability": "view",
      "type": "function"
    },
    {
      "inputs": [],
      "name": "getVersion",
      "outputs": [
        {
          "internalType": "uint256",
          "name": "version",
          "type": "uint256"
        }
      ],
      "stateMutability": "pure",
      "type": "function"
    },
    {
      "inputs": [
        {
          "internalType": "address",
          "name": "_to",
          "type": "address"
        },
        {
          "internalType": "uint256",
          "name": "_id",
          "type": "uint256"
        }
      ],
      "name": "giveaway",
      "outputs": [],
      "stateMutability": "nonpayable",
      "type": "function"
    },
    {
      "inputs": [
        {
          "internalType": "address",
          "name": "owner",
          "type": "address"
        }
      ],
      "name": "isPromoter",
      "outputs": [
        {
          "internalType": "bool",
          "name": "",
          "type": "bool"
        }
      ],
      "stateMutability": "view",
      "type": "function"
    },
    {
      "inputs": [
        {
          "internalType": "address",
          "name": "",
          "type": "address"
        }
      ],
      "name": "limitAmountForPromoter",
      "outputs": [
        {
          "internalType": "uint256",
          "name": "",
          "type": "uint256"
        }
      ],
      "stateMutability": "view",
      "type": "function"
    },
    {
      "inputs": [
        {
          "internalType": "uint256",
          "name": "",
          "type": "uint256"
        }
      ],
      "name": "listedMap",
      "outputs": [
        {
          "internalType": "bool",
          "name": "",
          "type": "bool"
        }
      ],
      "stateMutability": "view",
      "type": "function"
    },
    {
      "inputs": [],
      "name": "marketFeeForETH",
      "outputs": [
        {
          "internalType": "uint256",
          "name": "",
          "type": "uint256"
        }
      ],
      "stateMutability": "view",
      "type": "function"
    },
    {
      "inputs": [],
      "name": "marketFeeForToken",
      "outputs": [
        {
          "internalType": "uint256",
          "name": "",
          "type": "uint256"
        }
      ],
      "stateMutability": "view",
      "type": "function"
    },
    {
      "inputs": [
        {
          "internalType": "uint256",
          "name": "number",
          "type": "uint256"
        },
        {
          "internalType": "uint256[]",
          "name": "_level",
          "type": "uint256[]"
        }
      ],
      "name": "mint",
      "outputs": [],
      "stateMutability": "payable",
      "type": "function"
    },
    {
      "inputs": [
        {
          "internalType": "address",
          "name": "",
          "type": "address"
        }
      ],
      "name": "mintAmountForPromoter",
      "outputs": [
        {
          "internalType": "uint256",
          "name": "",
          "type": "uint256"
        }
      ],
      "stateMutability": "view",
      "type": "function"
    },
    {
      "inputs": [
        {
          "internalType": "uint256",
          "name": "number",
          "type": "uint256"
        },
        {
          "internalType": "uint256[]",
          "name": "_level",
          "type": "uint256[]"
        }
      ],
      "name": "mintForPromoter",
      "outputs": [],
      "stateMutability": "nonpayable",
      "type": "function"
    },
    {
      "inputs": [],
      "name": "mintPrice",
      "outputs": [
        {
          "internalType": "uint256",
          "name": "",
          "type": "uint256"
        }
      ],
      "stateMutability": "view",
      "type": "function"
    },
    {
      "inputs": [],
      "name": "nftContract",
      "outputs": [
        {
          "internalType": "address",
          "name": "",
          "type": "address"
        }
      ],
      "stateMutability": "view",
      "type": "function"
    },
    {
      "inputs": [
        {
          "internalType": "uint256",
          "name": "_id",
          "type": "uint256"
        },
        {
          "internalType": "uint256",
          "name": "_price",
          "type": "uint256"
        },
        {
          "internalType": "string",
          "name": "paymentType",
          "type": "string"
        }
      ],
      "name": "openTrade",
      "outputs": [],
      "stateMutability": "nonpayable",
      "type": "function"
    },
    {
      "inputs": [],
      "name": "owner",
      "outputs": [
        {
          "internalType": "address",
          "name": "",
          "type": "address"
        }
      ],
      "stateMutability": "view",
      "type": "function"
    },
    {
      "inputs": [
        {
          "internalType": "uint256",
          "name": "",
          "type": "uint256"
        }
      ],
      "name": "ownerMap",
      "outputs": [
        {
          "internalType": "address",
          "name": "",
          "type": "address"
        }
      ],
      "stateMutability": "view",
      "type": "function"
    },
    {
      "inputs": [],
      "name": "pauseContract",
      "outputs": [],
      "stateMutability": "nonpayable",
      "type": "function"
    },
    {
      "inputs": [],
      "name": "paused",
      "outputs": [
        {
          "internalType": "bool",
          "name": "",
          "type": "bool"
        }
      ],
      "stateMutability": "view",
      "type": "function"
    },
    {
      "inputs": [
        {
          "internalType": "uint256",
          "name": "",
          "type": "uint256"
        }
      ],
      "name": "paymentTokenMap",
      "outputs": [
        {
          "internalType": "string",
          "name": "",
          "type": "string"
        }
      ],
      "stateMutability": "view",
      "type": "function"
    },
    {
      "inputs": [
        {
          "internalType": "string",
          "name": "",
          "type": "string"
        }
      ],
      "name": "payoutAddressMap",
      "outputs": [
        {
          "internalType": "address",
          "name": "",
          "type": "address"
        }
      ],
      "stateMutability": "view",
      "type": "function"
    },
    {
      "inputs": [
        {
          "internalType": "uint256",
          "name": "",
          "type": "uint256"
        }
      ],
      "name": "price",
      "outputs": [
        {
          "internalType": "uint256",
          "name": "",
          "type": "uint256"
        }
      ],
      "stateMutability": "view",
      "type": "function"
    },
    {
      "inputs": [
        {
          "internalType": "address",
          "name": "",
          "type": "address"
        }
      ],
      "name": "promoterAddressMap",
      "outputs": [
        {
          "internalType": "bool",
          "name": "",
          "type": "bool"
        }
      ],
      "stateMutability": "view",
      "type": "function"
    },
    {
      "inputs": [
        {
          "internalType": "uint256",
          "name": "amount",
          "type": "uint256"
        }
      ],
      "name": "recoverETH",
      "outputs": [
        {
          "internalType": "bool",
          "name": "success",
          "type": "bool"
        }
      ],
      "stateMutability": "nonpayable",
      "type": "function"
    },
    {
      "inputs": [
        {
          "internalType": "uint256",
          "name": "tokenId",
          "type": "uint256"
        }
      ],
      "name": "recoverNFT",
      "outputs": [],
      "stateMutability": "nonpayable",
      "type": "function"
    },
    {
      "inputs": [
        {
          "internalType": "address",
          "name": "_new",
          "type": "address"
        }
      ],
      "name": "registerPromote",
      "outputs": [],
      "stateMutability": "nonpayable",
      "type": "function"
    },
    {
      "inputs": [
        {
          "internalType": "address",
          "name": "_new",
          "type": "address"
        }
      ],
      "name": "registerPromoter",
      "outputs": [],
      "stateMutability": "nonpayable",
      "type": "function"
    },
    {
      "inputs": [],
      "name": "renounceOwnership",
      "outputs": [],
      "stateMutability": "nonpayable",
      "type": "function"
    },
    {
      "inputs": [],
      "name": "royaltyFee",
      "outputs": [
        {
          "internalType": "uint256",
          "name": "",
          "type": "uint256"
        }
      ],
      "stateMutability": "view",
      "type": "function"
    },
    {
      "inputs": [
        {
          "internalType": "uint256",
          "name": "",
          "type": "uint256"
        }
      ],
      "name": "royaltyMap",
      "outputs": [
        {
          "internalType": "uint256",
          "name": "",
          "type": "uint256"
        }
      ],
      "stateMutability": "view",
      "type": "function"
    },
    {
      "inputs": [
        {
          "internalType": "uint256",
          "name": "",
          "type": "uint256"
        }
      ],
      "name": "salePrice",
      "outputs": [
        {
          "internalType": "uint256",
          "name": "",
          "type": "uint256"
        }
      ],
      "stateMutability": "view",
      "type": "function"
    },
    {
      "inputs": [
        {
          "internalType": "uint256",
          "name": "_newMarketFeeForETH",
          "type": "uint256"
        }
      ],
      "name": "setMarketFeeForETH",
      "outputs": [],
      "stateMutability": "nonpayable",
      "type": "function"
    },
    {
      "inputs": [
        {
          "internalType": "uint256",
          "name": "_newMarketFeeForToken",
          "type": "uint256"
        }
      ],
      "name": "setMarketFeeForToken",
      "outputs": [],
      "stateMutability": "nonpayable",
      "type": "function"
    },
    {
      "inputs": [
        {
          "internalType": "address",
          "name": "owner",
          "type": "address"
        },
        {
          "internalType": "uint256",
          "name": "amount",
          "type": "uint256"
        }
      ],
      "name": "setMintAmountForPromoter",
      "outputs": [],
      "stateMutability": "nonpayable",
      "type": "function"
    },
    {
      "inputs": [
        {
          "internalType": "string",
          "name": "_paymentToken",
          "type": "string"
        },
        {
          "internalType": "address",
          "name": "_tokenAddress",
          "type": "address"
        },
        {
          "internalType": "address",
          "name": "_payoutAddress",
          "type": "address"
        }
      ],
      "name": "setTokenAddress",
      "outputs": [],
      "stateMutability": "nonpayable",
      "type": "function"
    },
    {
      "inputs": [],
      "name": "stakingPool",
      "outputs": [
        {
          "internalType": "address",
          "name": "",
          "type": "address"
        }
      ],
      "stateMutability": "view",
      "type": "function"
    },
    {
      "inputs": [
        {
          "internalType": "string",
          "name": "",
          "type": "string"
        }
      ],
      "name": "tokenAddressMap",
      "outputs": [
        {
          "internalType": "address",
          "name": "",
          "type": "address"
        }
      ],
      "stateMutability": "view",
      "type": "function"
    },
    {
      "inputs": [
        {
          "internalType": "address",
          "name": "newOwner",
          "type": "address"
        }
      ],
      "name": "transferOwnership",
      "outputs": [],
      "stateMutability": "nonpayable",
      "type": "function"
    },
    {
      "inputs": [],
      "name": "turnOffAdminRecovery",
      "outputs": [],
      "stateMutability": "nonpayable",
      "type": "function"
    },
    {
      "inputs": [],
      "name": "unpauseContract",
      "outputs": [],
      "stateMutability": "nonpayable",
      "type": "function"
    },
    {
      "inputs": [
        {
          "internalType": "address",
          "name": "_new",
          "type": "address"
        }
      ],
      "name": "unregisterPromoter",
      "outputs": [],
      "stateMutability": "nonpayable",
      "type": "function"
    },
    {
      "inputs": [
        {
          "internalType": "uint256",
          "name": "_tokenId",
          "type": "uint256"
        },
        {
          "internalType": "bool",
          "name": "shouldBeListed",
          "type": "bool"
        }
      ],
      "name": "updateListingStatus",
      "outputs": [
        {
          "internalType": "bool",
          "name": "",
          "type": "bool"
        }
      ],
      "stateMutability": "nonpayable",
      "type": "function"
    },
    {
      "inputs": [
        {
          "internalType": "uint256",
          "name": "_tokenId",
          "type": "uint256"
        },
        {
          "internalType": "uint256",
          "name": "_price",
          "type": "uint256"
        },
        {
          "internalType": "string",
          "name": "paymentType",
          "type": "string"
        }
      ],
      "name": "updatePrice",
      "outputs": [
        {
          "internalType": "bool",
          "name": "",
          "type": "bool"
        }
      ],
      "stateMutability": "nonpayable",
      "type": "function"
    },
    {
      "inputs": [],
      "name": "withdraw",
      "outputs": [],
      "stateMutability": "nonpayable",
      "type": "function"
    },
    {
      "inputs": [
        {
          "internalType": "string",
          "name": "_tokenName",
          "type": "string"
        },
        {
          "internalType": "uint256",
          "name": "_amount",
          "type": "uint256"
        }
      ],
      "name": "withdrawToken",
      "outputs": [],
      "stateMutability": "nonpayable",
      "type": "function"
    },
    {
      "stateMutability": "payable",
      "type": "receive"
    }
  ],
  "bytecode": "0x6080604052603260035560326004556005805560056006553480156200002457600080fd5b506040516200522f3803806200522f8339810160408190526200004791620002a2565b6001600055620000573362000233565b6040516301ffc9a760e01b81526380ac58cd60e01b60048201526001600160a01b038616906301ffc9a79060240160206040518083038186803b1580156200009e57600080fd5b505afa158015620000b3573d6000803e3d6000fd5b505050506040513d601f19601f82011682018060405250810190620000d9919062000312565b620001505760405162461bcd60e51b815260206004820152603f60248201527f436f6e7472616374206174206e6674436f6e74726163745f206164647265737360448201527f20646f6573206e6f7420737570706f7274204e465420696e7465726661636500606482015260840160405180910390fd5b600780546001600160a01b038088166001600160a01b031992831617909255600880549287169290911691909117905560405183906014906200019d906327a224a760e11b815260040190565b90815260405190819003602001812080546001600160a01b03939093166001600160a01b0319909316929092179091556327a224a760e11b8152829060129060040190815260405190819003602001902080546001600160a01b039283166001600160a01b0319909116179055600a80546001600160b01b0319169290911691909117600160a01b179055506200033d92505050565b600180546001600160a01b038381166001600160a01b0319831681179093556040519116919082907f8be0079c531659141344cd1fd0a4f28419497f9722a3daafe3b4186f6b6457e090600090a35050565b80516001600160a01b03811681146200029d57600080fd5b919050565b600080600080600060a08688031215620002bb57600080fd5b620002c68662000285565b9450620002d66020870162000285565b9350620002e66040870162000285565b9250620002f66060870162000285565b9150620003066080870162000285565b90509295509295909350565b6000602082840312156200032557600080fd5b815180151581146200033657600080fd5b9392505050565b614ee2806200034d6000396000f3fe6080604052600436106103bc5760003560e01c80638da5cb5b116101f2578063ba8a12b41161010d578063d3335553116100a0578063f2fde38b1161006f578063f2fde38b14610c2a578063f68b323614610c4a578063f8eb5fc514610c6a578063faa22adb14610c9757600080fd5b8063d333555314610b9d578063d56d229d14610bbd578063edf85f5114610bdd578063f27da5e514610c0a57600080fd5b8063c457fb37116100dc578063c457fb3714610b10578063c97a413a14610b3d578063ca1ce2af14610b5d578063d10bfeed14610b7d57600080fd5b8063ba8a12b414610a79578063bb7adeb414610a99578063bc8ba28f14610ab9578063bc99681914610ae957600080fd5b80639a8bfa2b11610185578063b33712c511610154578063b33712c514610a01578063b35e516114610a16578063b8997a9714610a43578063b9a2de3a14610a5957600080fd5b80639a8bfa2b14610945578063a39cea841461097b578063a6e9d5461461099b578063acfa3c67146109c857600080fd5b806396b5a755116101c157806396b5a755146108dd57806398214bcb146108fd57806398c055911461091d57806399331fdf1461093257600080fd5b80638da5cb5b146108485780639037bab214610866578063941d66db1461087c5780639486e0a4146108bd57600080fd5b80634c78106f116102e25780636749b0ba116102755780637788a387116102445780637788a387146107bc57806379695af7146107db578063808d6d29146107fb57806382b465b71461082857600080fd5b80636749b0ba146107305780636817c76c14610771578063715018a6146107875780637215361e1461079c57600080fd5b8063571a26a0116102b1578063571a26a01461069c57806359cef85b146106d15780635c975abb146106f1578063638b1b141461071057600080fd5b80634c78106f1461060657806351cc87d614610633578063536531311461065357806353a636dd1461067c57600080fd5b806327cfc8a91161035a5780633ccfd60b116103295780633ccfd60b146105a6578063426ef763146105bb57806342966c68146105d1578063439766ce146105f157600080fd5b806327cfc8a91461052a5780632d69044f1461054a57806333209e651461055d57806338a4cb5b1461057057600080fd5b80630d6b3378116103965780630d6b33781461047f5780630d8e6e2c1461049f578063194a9716146104bd57806326a49e37146104fd57600080fd5b8063050225ea146104005780630abeaa80146104225780630c56ae3b1461044257600080fd5b366103fb57604080513381523460208201527f88a5966d370b9919b20f3e2c13ff65706f196a4e32cc2c12bf57088f88525874910160405180910390a1005b600080fd5b34801561040c57600080fd5b5061042061041b366004614626565b610cc7565b005b34801561042e57600080fd5b5061042061043d36600461484a565b610e5c565b34801561044e57600080fd5b50600954610462906001600160a01b031681565b6040516001600160a01b0390911681526020015b60405180910390f35b34801561048b57600080fd5b5061042061049a36600461484a565b610eb9565b3480156104ab57600080fd5b5060015b604051908152602001610476565b3480156104c957600080fd5b506104ed6104d836600461484a565b6000908152600d602052604090205460ff1690565b6040519015158152602001610476565b34801561050957600080fd5b506104af61051836600461484a565b600b6020526000908152604090205481565b34801561053657600080fd5b506104af6105453660046145ec565b610f16565b61042061055836600461487c565b610f6a565b61042061056b3660046148f3565b6111cf565b34801561057c57600080fd5b5061046261058b36600461484a565b600f602052600090815260409020546001600160a01b031681565b3480156105b257600080fd5b506104206118bb565b3480156105c757600080fd5b506104af60035481565b3480156105dd57600080fd5b506104206105ec36600461484a565b6118f6565b3480156105fd57600080fd5b50610420611998565b34801561061257600080fd5b506104af6106213660046145ec565b60166020526000908152604090205481565b34801561063f57600080fd5b5061042061064e3660046145ec565b611a20565b34801561065f57600080fd5b5061066961038481565b60405161ffff9091168152602001610476565b34801561068857600080fd5b506104ed610697366004614943565b611aab565b3480156106a857600080fd5b506106bc6106b736600461484a565b611b94565b60405161047699989796959493929190614c9c565b3480156106dd57600080fd5b506104206106ec366004614626565b611c78565b3480156106fd57600080fd5b50600a54600160a81b900460ff166104ed565b34801561071c57600080fd5b50600a54610462906001600160a01b031681565b34801561073c57600080fd5b5061046261074b366004614764565b80516020818301810180516014825292820191909301209152546001600160a01b031681565b34801561077d57600080fd5b506104af60065481565b34801561079357600080fd5b50610420611c9c565b3480156107a857600080fd5b506104206107b736600461487c565b611cb0565b3480156107c857600080fd5b50600a54600160a01b900460ff166104ed565b3480156107e757600080fd5b506104206107f63660046145ec565b611f18565b34801561080757600080fd5b5061081b61081636600461484a565b611f56565b6040516104769190614b0a565b34801561083457600080fd5b50610420610843366004614652565b611ff8565b34801561085457600080fd5b506001546001600160a01b0316610462565b34801561087257600080fd5b506104af60045481565b34801561088857600080fd5b50610462610897366004614764565b80516020818301810180516012825292820191909301209152546001600160a01b031681565b3480156108c957600080fd5b506104206108d836600461484a565b6123e7565b3480156108e957600080fd5b506104206108f836600461484a565b612494565b34801561090957600080fd5b506104ed6109183660046148c3565b61272b565b34801561092957600080fd5b50610420612868565b610420610940366004614943565b6128b6565b34801561095157600080fd5b5061046261096036600461484a565b6011602052600090815260409020546001600160a01b031681565b34801561098757600080fd5b5061042061099636600461484a565b6130f3565b3480156109a757600080fd5b506104af6109b636600461484a565b60106020526000908152604090205481565b3480156109d457600080fd5b506104ed6109e33660046145ec565b6001600160a01b031660009081526015602052604090205460ff1690565b348015610a0d57600080fd5b50610420613299565b348015610a2257600080fd5b506104af610a313660046145ec565b60176020526000908152604090205481565b348015610a4f57600080fd5b506104af60055481565b348015610a6557600080fd5b50610420610a7436600461484a565b613315565b348015610a8557600080fd5b50610420610a943660046147a1565b613a86565b348015610aa557600080fd5b50610420610ab4366004614993565b613b16565b348015610ac557600080fd5b506104ed610ad436600461484a565b600d6020526000908152604090205460ff1681565b348015610af557600080fd5b50610afe600a81565b60405160ff9091168152602001610476565b348015610b1c57600080fd5b506104af610b2b36600461484a565b6000908152600b602052604090205490565b348015610b4957600080fd5b50610420610b58366004614805565b613d47565b348015610b6957600080fd5b5061081b610b7836600461484a565b613eea565b348015610b8957600080fd5b506104af610b983660046145ec565b613f84565b348015610ba957600080fd5b506104ed610bb836600461484a565b613fd8565b348015610bc957600080fd5b50600754610462906001600160a01b031681565b348015610be957600080fd5b506104af610bf836600461484a565b600c6020526000908152604090205481565b348015610c1657600080fd5b50610420610c25366004614943565b614036565b348015610c3657600080fd5b50610420610c453660046145ec565b614165565b348015610c5657600080fd5b50610420610c653660046145ec565b6141db565b348015610c7657600080fd5b506104af610c8536600461484a565b6000908152600c602052604090205490565b348015610ca357600080fd5b506104ed610cb23660046145ec565b60156020526000908152604090205460ff1681565b6000818152600d602052604090205460ff16610d48576007546040516323b872dd60e01b81526001600160a01b03909116906323b872dd90610d1190339086908690600401614ae6565b600060405180830381600087803b158015610d2b57600080fd5b505af1158015610d3f573d6000803e3d6000fd5b50505050610df8565b6000818152601160205260409020546001600160a01b03163314610d875760405162461bcd60e51b8152600401610d7e90614b43565b60405180910390fd5b6007546040516323b872dd60e01b81526001600160a01b03909116906323b872dd90610dbb90309086908690600401614ae6565b600060405180830381600087803b158015610dd557600080fd5b505af1158015610de9573d6000803e3d6000fd5b505050600082905250600d6020525b60008181526011602090815260409182902080546001600160a01b0319166001600160a01b038616908117909155915183815233917f4abe537933cf6821c78fd52b40560aa40ad6f997168b53f9ea55a9b34420069b910160405180910390a35050565b610e64614205565b60018111610eb45760405162461bcd60e51b815260206004820152601960248201527f496e76616c6964204d61726b657446656520466f7220455448000000000000006044820152606401610d7e565b600355565b610ec1614205565b60018111610f115760405162461bcd60e51b815260206004820152601b60248201527f496e76616c6964204d61726b657446656520466f7220546f6b656e00000000006044820152606401610d7e565b600455565b6001600160a01b03811660009081526015602052604081205460ff16610f4e5760405162461bcd60e51b8152600401610d7e90614b1d565b506001600160a01b031660009081526017602052604090205490565b610f9c6064610f96670de0b6b3a7640000610f908660065461425f90919063ffffffff16565b9061425f565b90614272565b341015610feb5760405162461bcd60e51b815260206004820152601960248201527f4e6f206861766520656e6f7567682073756666696369656e74000000000000006044820152606401610d7e565b60005b8281101561119057600061100160025490565b6000818152600f602090815260408083208054336001600160a01b031991821681179092556011845282852080549091169091179055600d8252808320805460ff1916905560055460109092529091205560065490915061107190606490610f9690670de0b6b3a764000061425f565b6000828152600b602052604090205560075483516001600160a01b03909116906394bf804d908590859081106110a9576110a9614e5d565b6020026020010151336040518363ffffffff1660e01b81526004016110e19291909182526001600160a01b0316602082015260400190565b602060405180830381600087803b1580156110fb57600080fd5b505af115801561110f573d6000803e3d6000fd5b505050506040513d601f19601f820116820180604052508101906111339190614863565b50611142600280546001019055565b604080518281526000602082015233917f53ad8893610de0fa6656f026deb942f5cde3d84f4c68f80c8b376f70c1a0f389910160405180910390a2508061118881614e2c565b915050610fee565b506008546040516001600160a01b03909116903480156108fc02916000818181858888f193505050501580156111ca573d6000803e3d6000fd5b505050565b600260005414156111f25760405162461bcd60e51b8152600401610d7e90614c26565b6002600055600a54600160a81b900460ff16156112215760405162461bcd60e51b8152600401610d7e90614bfa565b8261124a816000908152600e602052604090206005015461010090046001600160a01b03161590565b1561128f5760405162461bcd60e51b8152602060048201526015602482015274105d58dd1a5bdb88191bd95cdb89dd08195e1a5cdd605a1b6044820152606401610d7e565b6000848152600e6020526040902060020154849015806112b657506112b38161427e565b42105b6112f45760405162461bcd60e51b815260206004820152600f60248201526e105d58dd1a5bdb88195e1c1a5c9959608a1b6044820152606401610d7e565b600083116113445760405162461bcd60e51b815260206004820152601d60248201527f416d6f756e74206d7573742062652067726561746572207468616e20300000006044820152606401610d7e565b6000858152600e60209081526040918290209151611366926004019101614a4a565b604051602081830303815290604052805190602001208460405160200161138d9190614a2e565b60405160208183030381529060405280519060200120146113f05760405162461bcd60e51b815260206004820152601d60248201527f5061796d656e7454797065206973206e6f74206d69736d6174636865640000006044820152606401610d7e565b6040516208aa8960eb1b602082015260230160405160208183030381529060405280519060200120846040516020016114299190614a2e565b604051602081830303815290604052805190602001201415611499573483146114945760405162461bcd60e51b815260206004820152601e60248201527f416d6f756e7420646f65736e277420657175616c206d73672e76616c756500006044820152606401610d7e565b61157b565b6012846040516114a99190614a2e565b908152604051908190036020018120546370a0823160e01b82523360048301526001600160a01b0316906370a082319060240160206040518083038186803b1580156114f457600080fd5b505afa158015611508573d6000803e3d6000fd5b505050506040513d601f19601f8201168201806040525081019061152c9190614863565b83101561157b5760405162461bcd60e51b815260206004820152601a60248201527f496e73756666696369656e7420746f6b656e2062616c616e63650000000000006044820152606401610d7e565b6000858152600e60205260409020546115f4576000858152600e60205260409020600301548310156115ef5760405162461bcd60e51b815260206004820152601d60248201527f4d7573742062696420726573657276655072696365206f72206d6f72650000006044820152606401610d7e565b6117e2565b6000858152600e602052604090205461162e9061161990606490610f9690600a61425f565b6000878152600e60205260409020549061429c565b8310156116a35760405162461bcd60e51b815260206004820152603f60248201527f4d75737420626964206d6f7265207468616e206c61737420626964206279204d60448201527f494e5f4249445f494e4352454d454e545f50455243454e5420616d6f756e74006064820152608401610d7e565b6040516208aa8960eb1b602082015260230160405160208183030381529060405280519060200120846040516020016116dc9190614a2e565b604051602081830303815290604052805190602001201415611726576000858152600e6020526040902060068101549054611720916001600160a01b0316906142a8565b506117e2565b6012846040516117369190614a2e565b9081526040805160209281900383018120546000898152600e909452919092206006810154905463a9059cbb60e01b84526001600160a01b0391821660048501526024840152169063a9059cbb90604401602060405180830381600087803b1580156117a157600080fd5b505af11580156117b5573d6000803e3d6000fd5b505050506040513d601f19601f820116820180604052508101906117d99190614747565b6117e257600080fd5b6000858152600e6020526040902083815560060180546001600160a01b031916331790556118124261038461429c565b61181b8661427e565b10156118665761183f61182d8661427e565b6118394261038461429c565b9061430b565b6000868152600e602052604081206001018054909190611860908490614d55565b90915550505b60075460405186917f3bb6f40a8aeb5dda33c401527cd8f6bd335757d2b1ed2827f0321a090c66b824916118a7916001600160a01b03169033908890614ae6565b60405180910390a250506001600055505050565b6118c3614205565b6040514790339082156108fc029083906000818181858888f193505050501580156118f2573d6000803e3d6000fd5b5050565b600754604051630852cd8d60e31b8152600481018390526001600160a01b03909116906342966c6890602401600060405180830381600087803b15801561193c57600080fd5b505af1158015611950573d6000803e3d6000fd5b505050600091825250600f6020908152604080832080546001600160a01b0319908116909155601083528184208490556011835281842080549091169055600b909152812055565b6008546001600160a01b0316331480156119bb5750600a54600160a01b900460ff165b6119d75760405162461bcd60e51b8152600401610d7e90614b70565b600a805460ff60a81b1916600160a81b1790556040513381527f62e78cea01bee320cd4e420270b5ea74000d11b0c9f74754ebdbfc544b05a258906020015b60405180910390a1565b611a28614205565b6001546001600160a01b0382811691161415611a795760405162461bcd60e51b815260206004820152601060248201526f31b0b73737ba1039b2ba1037bbb732b960811b6044820152606401610d7e565b6001600160a01b03166000908152601560209081526040808320805460ff191660011790556016909152902060059055565b6000838152600b602090815260408083205460119092528220546001600160a01b03163314611b1c5760405162461bcd60e51b815260206004820152601c60248201527f4572726f722c20796f7520617265206e6f7420746865206f776e6572000000006044820152606401610d7e565b6000858152600b60209081526040808320879055601382529091208451611b4592860190614369565b50604080518281526020810186905290810186905233907f8647dab5101cbe18afb171756e9753802f9d66725bf2346b079b8b1a275e01169060600160405180910390a2506001949350505050565b600e60205260009081526040902080546001820154600283015460038401546004850180549495939492939192611bca90614df1565b80601f0160208091040260200160405190810160405280929190818152602001828054611bf690614df1565b8015611c435780601f10611c1857610100808354040283529160200191611c43565b820191906000526020600020905b815481529060010190602001808311611c2657829003601f168201915b50505060058401546006850154600790950154939460ff8216946001600160a01b036101009093048316945090821692501689565b611c80614205565b6001600160a01b03909116600090815260176020526040902055565b611ca4614205565b611cae6000614317565b565b3360009081526015602052604090205460ff16611cdf5760405162461bcd60e51b8152600401610d7e90614b1d565b6000611cea33613f84565b90506000611cf733610f16565b9050611d03818561429c565b821015611d485760405162461bcd60e51b815260206004820152601360248201527243616e6e6f74206d696e7420616e796d6f726560681b6044820152606401610d7e565b60005b84811015611eed576000611d5e60025490565b6000818152600f602090815260408083208054336001600160a01b031991821681179092556011845282852080549091169091179055600d8252808320805460ff19169055600554601090925290912055600654909150611dce90606490610f9690670de0b6b3a764000061425f565b6000828152600b602052604090205560075485516001600160a01b03909116906394bf804d90879085908110611e0657611e06614e5d565b6020026020010151336040518363ffffffff1660e01b8152600401611e3e9291909182526001600160a01b0316602082015260400190565b602060405180830381600087803b158015611e5857600080fd5b505af1158015611e6c573d6000803e3d6000fd5b505050506040513d601f19601f82011682018060405250810190611e909190614863565b50611e9f600280546001019055565b604080518281526000602082015233917f53ad8893610de0fa6656f026deb942f5cde3d84f4c68f80c8b376f70c1a0f389910160405180910390a25080611ee581614e2c565b915050611d4b565b503360009081526017602052604081208054869290611f0d908490614d55565b909155505050505050565b611f20614205565b6001600160a01b03166000908152601560209081526040808320805460ff19169055601682528083208390556017909152812055565b6000818152601360205260409020805460609190611f7390614df1565b80601f0160208091040260200160405190810160405280929190818152602001828054611f9f90614df1565b8015611fec5780601f10611fc157610100808354040283529160200191611fec565b820191906000526020600020905b815481529060010190602001808311611fcf57829003601f168201915b50505050509050919050565b612000614205565b84518651146120625760405162461bcd60e51b815260206004820152602860248201527f746f6b656e49447320616e642063726561746f727320617265206e6f74206d696044820152671cdb585d18da195960c21b6064820152608401610d7e565b83518651146120c35760405162461bcd60e51b815260206004820152602760248201527f746f6b656e49447320616e64205f70726963657320617265206e6f74206d69736044820152661b585d18da195960ca1b6064820152608401610d7e565b82518651146121245760405162461bcd60e51b815260206004820152602760248201527f746f6b656e49447320616e64205f6f776e65727320617265206e6f74206d69736044820152661b585d18da195960ca1b6064820152608401610d7e565b81518651146121885760405162461bcd60e51b815260206004820152602a60248201527f746f6b656e49447320616e64205f726f79616c7469657320617265206e6f74206044820152691b5a5cdb585d18da195960b21b6064820152608401610d7e565b80518651146121ec5760405162461bcd60e51b815260206004820152602a60248201527f746f6b656e49447320616e64205f6c69737465644d617020617265206e6f74206044820152691b5a5cdb585d18da195960b21b6064820152608401610d7e565b60005b86518110156123de57612206600280546001019055565b85818151811061221857612218614e5d565b6020026020010151600f600089848151811061223657612236614e5d565b6020026020010151815260200190815260200160002060006101000a8154816001600160a01b0302191690836001600160a01b0316021790555084818151811061228257612282614e5d565b6020026020010151600b60008984815181106122a0576122a0614e5d565b60200260200101518152602001908152602001600020819055508381815181106122cc576122cc614e5d565b6020026020010151601160008984815181106122ea576122ea614e5d565b6020026020010151815260200190815260200160002060006101000a8154816001600160a01b0302191690836001600160a01b0316021790555082818151811061233657612336614e5d565b60200260200101516010600089848151811061235457612354614e5d565b602002602001015181526020019081526020016000208190555081818151811061238057612380614e5d565b6020026020010151600d600089848151811061239e5761239e614e5d565b6020026020010151815260200190815260200160002060006101000a81548160ff02191690831515021790555080806123d690614e2c565b9150506121ef565b50505050505050565b6008546001600160a01b03163314801561240a5750600a54600160a01b900460ff165b6124265760405162461bcd60e51b8152600401610d7e90614b70565b6007546008546040516323b872dd60e01b81526001600160a01b03928316926323b872dd9261245f923092909116908690600401614ae6565b600060405180830381600087803b15801561247957600080fd5b505af115801561248d573d6000803e3d6000fd5b5050505050565b600260005414156124b75760405162461bcd60e51b8152600401610d7e90614c26565b6002600055806124e5816000908152600e602052604090206005015461010090046001600160a01b03161590565b1561252a5760405162461bcd60e51b8152602060048201526015602482015274105d58dd1a5bdb88191bd95cdb89dd08195e1a5cdd605a1b6044820152606401610d7e565b6000828152600e6020526040902060050154829061010090046001600160a01b0316331461256a5760405162461bcd60e51b8152600401610d7e90614bb5565b6000838152600e6020526040902054156125c65760405162461bcd60e51b815260206004820152601760248201527f41756374696f6e20616c726561647920737461727465640000000000000000006044820152606401610d7e565b6000838152600e60205260408120600581015482825560018201839055600282018390556003820183905561010090046001600160a01b03169161260d60048301826143ed565b506005810180546001600160a81b03191690556006810180546001600160a01b0319908116909155600791820180549091169055546040516323b872dd60e01b81526001600160a01b03909116906323b872dd9061267390309085908990600401614ae6565b600060405180830381600087803b15801561268d57600080fd5b505af11580156126a1573d6000803e3d6000fd5b5050506000858152600d60209081526040808320805460ff19169055601182529182902080546001600160a01b0319166001600160a01b03868116918217909255600754845192168252918101919091528692507f31e46b3372adff8978a18a1c543a6b3a925ee693bdf7a7c54df36f30f87d290e910160405180910390a2505060016000555050565b6007546040516331a9108f60e11b8152600481018490526000916001600160a01b031690636352211e9060240160206040518083038186803b15801561277057600080fd5b505afa158015612784573d6000803e3d6000fd5b505050506040513d601f19601f820116820180604052508101906127a89190614609565b6001600160a01b0316336001600160a01b0316146128085760405162461bcd60e51b815260206004820152601c60248201527f4572726f722c20796f7520617265206e6f7420746865206f776e6572000000006044820152606401610d7e565b6000838152600d6020908152604091829020805460ff191685151590811790915582518681529182015233917f3fd63d9ca8dc693a1b9911e664951294721009a4f6239c862d6719a160a1edfc910160405180910390a250600192915050565b6008546001600160a01b03163314801561288b5750600a54600160a01b900460ff165b6128a75760405162461bcd60e51b8152600401610d7e90614b70565b600a805460ff60a01b19169055565b6000838152600d602052604090205460ff166129145760405162461bcd60e51b815260206004820152601960248201527f4974656d206e6f74206c69737465642063757272656e746c79000000000000006044820152606401610d7e565b6007546040516331a9108f60e11b8152600481018590526001600160a01b0390911690636352211e9060240160206040518083038186803b15801561295857600080fd5b505afa15801561296c573d6000803e3d6000fd5b505050506040513d601f19601f820116820180604052508101906129909190614609565b6001600160a01b0316336001600160a01b031614156129f15760405162461bcd60e51b815260206004820152601860248201527f43616e206e6f7420627579207768617420796f75206f776e00000000000000006044820152606401610d7e565b6000838152600c60205260409020548214612a4e5760405162461bcd60e51b815260206004820152601960248201527f4572726f722c207072696365206973206e6f74206d61746368000000000000006044820152606401610d7e565b6000838152601360209081526040918290209151612a6d929101614a4a565b6040516020818303038152906040528051906020012081604051602001612a949190614a2e565b6040516020818303038152906040528051906020012014612af75760405162461bcd60e51b815260206004820181905260248201527f4572726f722c205061796d656e742054797065206973206e6f74206d617463686044820152606401610d7e565b6000838152601160209081526040918290205491516001600160a01b0390921691612b2c91016208aa8960eb1b815260030190565b6040516020818303038152906040528051906020012082604051602001612b539190614a2e565b604051602081830303815290604052805190602001201415612c7e576000848152600c6020526040902054341015612be05760405162461bcd60e51b815260206004820152602a60248201527f6d73672e76616c75652073686f756c6420626520657175616c20746f2074686560448201526908189d5e505b5bdd5b9d60b21b6064820152608401610d7e565b6003546000858152600c60205260408120549091612c06916103e891610f96919061425f565b6000868152600c602052604081205491925090612c23908361430b565b9050612c2f83826142a8565b50600854612c55906001600160a01b0316612c506005610f9686600361425f565b6142a8565b50600a54612c76906001600160a01b0316612c506005610f9686600261425f565b505050612ffc565b6000848152600c602052604090819020549051601290612c9f908590614a2e565b908152604051908190036020018120546370a0823160e01b82523360048301526001600160a01b0316906370a082319060240160206040518083038186803b158015612cea57600080fd5b505afa158015612cfe573d6000803e3d6000fd5b505050506040513d601f19601f82011682018060405250810190612d229190614863565b1015612d8b5760405162461bcd60e51b815260206004820152603260248201527f746f6b656e2062616c616e63652073686f756c642062652067726561746572206044820152711d1a185b881d1a1948189d5e505b5bdd5b9d60721b6064820152608401610d7e565b6004546000858152600c60205260408120549091612db1916103e891610f96919061425f565b6000868152600c602052604081205491925090612dce908361430b565b9050601284604051612de09190614a2e565b908152604051908190036020018120546323b872dd60e01b82526001600160a01b0316906323b872dd90612e1c90339087908690600401614ae6565b602060405180830381600087803b158015612e3657600080fd5b505af1158015612e4a573d6000803e3d6000fd5b505050506040513d601f19601f82011682018060405250810190612e6e9190614747565b612e7757600080fd5b601284604051612e879190614a2e565b908152604051908190036020019020546008546001600160a01b03918216916323b872dd91339116612ebf6003610f90886005614272565b6040518463ffffffff1660e01b8152600401612edd93929190614ae6565b602060405180830381600087803b158015612ef757600080fd5b505af1158015612f0b573d6000803e3d6000fd5b505050506040513d601f19601f82011682018060405250810190612f2f9190614747565b612f3857600080fd5b601284604051612f489190614a2e565b90815260405190819003602001902054600a546001600160a01b03918216916323b872dd91339116612f806002610f90886005614272565b6040518463ffffffff1660e01b8152600401612f9e93929190614ae6565b602060405180830381600087803b158015612fb857600080fd5b505af1158015612fcc573d6000803e3d6000fd5b505050506040513d601f19601f82011682018060405250810190612ff09190614747565b612ff957600080fd5b50505b6007546040516323b872dd60e01b81526001600160a01b03909116906323b872dd9061303090309033908990600401614ae6565b600060405180830381600087803b15801561304a57600080fd5b505af115801561305e573d6000803e3d6000fd5b505050600085815260116020908152604080832080546001600160a01b03191633908117909155600d8352818420805460ff19169055600b8352818420889055600c83529281902087905580518781529182018890529192506001600160a01b038416917f46661dab58311a6838247afecbee792192b4f27fc8b3e7168c66bc55ec2e404e910160405180910390a350505050565b6000818152601160205260409020546001600160a01b031633146131295760405162461bcd60e51b8152600401610d7e90614b43565b6000818152600d602052604090205460ff16151560011461317d5760405162461bcd60e51b815260206004820152600e60248201526d105b1c9958591e4818dbdb1cd95960921b6044820152606401610d7e565b6007546040516323b872dd60e01b81526001600160a01b03909116906323b872dd906131b190309033908690600401614ae6565b600060405180830381600087803b1580156131cb57600080fd5b505af11580156131df573d6000803e3d6000fd5b5050506000828152600d60209081526040808320805460ff19169055600b825280832054600c835281842055600e90915290206005015461010090046001600160a01b03163314159050613296576000818152600e602052604081208181556001810182905560028101829055600381018290559061326160048301826143ed565b506005810180546001600160a81b03191690556006810180546001600160a01b03199081169091556007909101805490911690555b50565b6008546001600160a01b0316331480156132bc5750600a54600160a01b900460ff165b6132d85760405162461bcd60e51b8152600401610d7e90614b70565b600a805460ff60a81b191690556040513381527f5db9ee0a495bf2e6ff9c91a7834c1ba4fdd244a5e8aa4e537bd38aeae4b073aa90602001611a16565b600260005414156133385760405162461bcd60e51b8152600401610d7e90614c26565b6002600055600a54600160a81b900460ff16156133675760405162461bcd60e51b8152600401610d7e90614bfa565b6000818152600e6020526040902060020154819015801590613391575061338d8161427e565b4210155b6133dd5760405162461bcd60e51b815260206004820152601860248201527f41756374696f6e206861736e277420636f6d706c6574656400000000000000006044820152606401610d7e565b6000828152600e6020526040902060050154829061010090046001600160a01b031633148061342557506000818152600e60205260409020600601546001600160a01b031633145b6134415760405162461bcd60e51b8152600401610d7e90614bb5565b6000838152600e60205260408120600681015481546005830154600490930180546001600160a01b0393841695929461010090049093169261348290614df1565b80601f01602080910402602001604051908101604052809291908181526020018280546134ae90614df1565b80156134fb5780601f106134d0576101008083540402835291602001916134fb565b820191906000526020600020905b8154815290600101906020018083116134de57829003601f168201915b50505060008a8152600e602052604081208181556001810182905560028101829055600381018290559394509150613538905060048301826143ed565b506005810180546001600160a81b03191690556006810180546001600160a01b03199081169091556007909101805490911690556001600160a01b03841661360c576007546040516323b872dd60e01b81526001600160a01b03909116906323b872dd906135ae90309086908c90600401614ae6565b600060405180830381600087803b1580156135c857600080fd5b505af11580156135dc573d6000803e3d6000fd5b505050600088815260116020526040902080546001600160a01b0319166001600160a01b038516179055506139f0565b6007546040516323b872dd60e01b81526001600160a01b03909116906323b872dd9061364090309088908c90600401614ae6565b600060405180830381600087803b15801561365a57600080fd5b505af115801561366e573d6000803e3d6000fd5b5050505060405160200161368b906208aa8960eb1b815260030190565b60405160208183030381529060405280519060200120816040516020016136b29190614a2e565b6040516020818303038152906040528051906020012014156137445760006136eb6103e8610f966003548761425f90919063ffffffff16565b90506136fb83612c50868461430b565b5060085461371c906001600160a01b0316612c506005610f9685600361425f565b50600a5461373d906001600160a01b0316612c506005610f9685600261425f565b50506139c8565b60006137616103e8610f966004548761425f90919063ffffffff16565b90506012826040516137739190614a2e565b908152604051908190036020019020546001600160a01b031663a9059cbb8461379c878561430b565b6040516001600160e01b031960e085901b1681526001600160a01b0390921660048301526024820152604401602060405180830381600087803b1580156137e257600080fd5b505af11580156137f6573d6000803e3d6000fd5b505050506040513d601f19601f8201168201806040525081019061381a9190614747565b61382357600080fd5b6012826040516138339190614a2e565b908152604051908190036020019020546008546001600160a01b039182169163a9059cbb91166138696005610f9686600361425f565b6040516001600160e01b031960e085901b1681526001600160a01b0390921660048301526024820152604401602060405180830381600087803b1580156138af57600080fd5b505af11580156138c3573d6000803e3d6000fd5b505050506040513d601f19601f820116820180604052508101906138e79190614747565b6138f057600080fd5b600a546040516001600160a01b039091169063a9059cbb90601490613916908690614a2e565b908152604051908190036020019020546001600160a01b031661393f6005610f9686600261425f565b6040516001600160e01b031960e085901b1681526001600160a01b0390921660048301526024820152604401602060405180830381600087803b15801561398557600080fd5b505af1158015613999573d6000803e3d6000fd5b505050506040513d601f19601f820116820180604052508101906139bd9190614747565b6139c657600080fd5b505b600087815260116020526040902080546001600160a01b0319166001600160a01b0386161790555b6000878152600d60209081526040808320805460ff19169055600754600f8352928190205481516001600160a01b03948516815286851693810193909352878416918301919091526060820186905291909116608082015287907f28e48213ce86ac133ca69274548aa4243a6e2433eee55213af64b46a2e719caf9060a0015b60405180910390a2505060016000555050505050565b613a8e614205565b81601284604051613a9f9190614a2e565b908152602001604051809103902060006101000a8154816001600160a01b0302191690836001600160a01b0316021790555080601484604051613ae29190614a2e565b90815260405190819003602001902080546001600160a01b03929092166001600160a01b0319909216919091179055505050565b60026000541415613b395760405162461bcd60e51b8152600401610d7e90614c26565b6002600055600a54600160a81b900460ff1615613b685760405162461bcd60e51b8152600401610d7e90614bfa565b84613b91816000908152600e602052604090206005015461010090046001600160a01b03161590565b613bd65760405162461bcd60e51b815260206004820152601660248201527541756374696f6e20616c72656164792065786973747360501b6044820152606401610d7e565b6001600160a01b038216613be957600080fd5b600086815260116020526040902080546001600160a01b03191633179055613c12868585614036565b60408051610120810182526000808252602080830189815242848601818152606086018b8152608087018b8152603260a08901526001600160a01b03808c1660c08a015260e08901889052600854166101008901528e8752600e86529790952086518155925160018401555160028301559251600382015593518051929492613ca19260048501920190614369565b5060a082015160058201805460c085015160ff9093166001600160a81b0319909116176101006001600160a01b0393841681029190911790915560e08401516006840180546001600160a01b031990811692851692909217905593015160079092018054909316911617905560405187907faf28756bc1e562d40cb95e5867314a58926ea413130138ca11b3b2d6db787c6190613a709084908a908a908a908a90614c5d565b613d4f614205565b6000601283604051613d619190614a2e565b908152604051908190036020018120546370a0823160e01b82523060048301526001600160a01b0316906370a082319060240160206040518083038186803b158015613dac57600080fd5b505afa158015613dc0573d6000803e3d6000fd5b505050506040513d601f19601f82011682018060405250810190613de49190614863565b905080821115613e455760405162461bcd60e51b815260206004820152602660248201527f496e73756666696369656e7420746f6b656e2062616c616e636520746f20776960448201526574686472617760d01b6064820152608401610d7e565b601283604051613e559190614a2e565b9081526040519081900360200181205463a9059cbb60e01b8252336004830152602482018390526001600160a01b03169063a9059cbb90604401602060405180830381600087803b158015613ea957600080fd5b505af1158015613ebd573d6000803e3d6000fd5b505050506040513d601f19601f82011682018060405250810190613ee19190614747565b6111ca57600080fd5b60136020526000908152604090208054613f0390614df1565b80601f0160208091040260200160405190810160405280929190818152602001828054613f2f90614df1565b8015613f7c5780601f10613f5157610100808354040283529160200191613f7c565b820191906000526020600020905b815481529060010190602001808311613f5f57829003601f168201915b505050505081565b6001600160a01b03811660009081526015602052604081205460ff16613fbc5760405162461bcd60e51b8152600401610d7e90614b1d565b506001600160a01b031660009081526016602052604090205490565b6008546000906001600160a01b031633148015613ffe5750600a54600160a01b900460ff165b61401a5760405162461bcd60e51b8152600401610d7e90614b70565b600854614030906001600160a01b0316836142a8565b92915050565b6000838152601160205260409020546001600160a01b0316331461406c5760405162461bcd60e51b8152600401610d7e90614b43565b6000838152600d602052604090205460ff16156140bc5760405162461bcd60e51b815260206004820152600e60248201526d105b1c9958591e481bdc195b995960921b6044820152606401610d7e565b6007546040516323b872dd60e01b81526001600160a01b03909116906323b872dd906140f090339030908890600401614ae6565b600060405180830381600087803b15801561410a57600080fd5b505af115801561411e573d6000803e3d6000fd5b5050506000848152600d60209081526040808320805460ff19166001179055600c825280832086905560138252909120835161415f93509091840190614369565b50505050565b61416d614205565b6001600160a01b0381166141d25760405162461bcd60e51b815260206004820152602660248201527f4f776e61626c653a206e6577206f776e657220697320746865207a65726f206160448201526564647265737360d01b6064820152608401610d7e565b61329681614317565b6141e3614205565b600880546001600160a01b0319166001600160a01b0392909216919091179055565b6001546001600160a01b03163314611cae5760405162461bcd60e51b815260206004820181905260248201527f4f776e61626c653a2063616c6c6572206973206e6f7420746865206f776e65726044820152606401610d7e565b600061426b8284614d8f565b9392505050565b600061426b8284614d6d565b6000818152600e602052604081206001810154600290910154614030915b600061426b8284614d55565b600080836001600160a01b03168361753090604051600060405180830381858888f193505050503d80600081146142fb576040519150601f19603f3d011682016040523d82523d6000602084013e614300565b606091505b509095945050505050565b600061426b8284614dae565b600180546001600160a01b038381166001600160a01b0319831681179093556040519116919082907f8be0079c531659141344cd1fd0a4f28419497f9722a3daafe3b4186f6b6457e090600090a35050565b82805461437590614df1565b90600052602060002090601f01602090048101928261439757600085556143dd565b82601f106143b057805160ff19168380011785556143dd565b828001600101855582156143dd579182015b828111156143dd5782518255916020019190600101906143c2565b506143e9929150614423565b5090565b5080546143f990614df1565b6000825580601f10614409575050565b601f01602090049060005260206000209081019061329691905b5b808211156143e95760008155600101614424565b600082601f83011261444957600080fd5b8135602061445e61445983614d31565b614d00565b80838252828201915082860187848660051b890101111561447e57600080fd5b60005b858110156144a657813561449481614e89565b84529284019290840190600101614481565b5090979650505050505050565b600082601f8301126144c457600080fd5b813560206144d461445983614d31565b80838252828201915082860187848660051b89010111156144f457600080fd5b60005b858110156144a657813561450a81614e9e565b845292840192908401906001016144f7565b600082601f83011261452d57600080fd5b8135602061453d61445983614d31565b80838252828201915082860187848660051b890101111561455d57600080fd5b60005b858110156144a657813584529284019290840190600101614560565b600082601f83011261458d57600080fd5b813567ffffffffffffffff8111156145a7576145a7614e73565b6145ba601f8201601f1916602001614d00565b8181528460208386010111156145cf57600080fd5b816020850160208301376000918101602001919091529392505050565b6000602082840312156145fe57600080fd5b813561426b81614e89565b60006020828403121561461b57600080fd5b815161426b81614e89565b6000806040838503121561463957600080fd5b823561464481614e89565b946020939093013593505050565b60008060008060008060c0878903121561466b57600080fd5b863567ffffffffffffffff8082111561468357600080fd5b61468f8a838b0161451c565b975060208901359150808211156146a557600080fd5b6146b18a838b01614438565b965060408901359150808211156146c757600080fd5b6146d38a838b0161451c565b955060608901359150808211156146e957600080fd5b6146f58a838b01614438565b9450608089013591508082111561470b57600080fd5b6147178a838b0161451c565b935060a089013591508082111561472d57600080fd5b5061473a89828a016144b3565b9150509295509295509295565b60006020828403121561475957600080fd5b815161426b81614e9e565b60006020828403121561477657600080fd5b813567ffffffffffffffff81111561478d57600080fd5b6147998482850161457c565b949350505050565b6000806000606084860312156147b657600080fd5b833567ffffffffffffffff8111156147cd57600080fd5b6147d98682870161457c565b93505060208401356147ea81614e89565b915060408401356147fa81614e89565b809150509250925092565b6000806040838503121561481857600080fd5b823567ffffffffffffffff81111561482f57600080fd5b61483b8582860161457c565b95602094909401359450505050565b60006020828403121561485c57600080fd5b5035919050565b60006020828403121561487557600080fd5b5051919050565b6000806040838503121561488f57600080fd5b82359150602083013567ffffffffffffffff8111156148ad57600080fd5b6148b98582860161451c565b9150509250929050565b600080604083850312156148d657600080fd5b8235915060208301356148e881614e9e565b809150509250929050565b60008060006060848603121561490857600080fd5b83359250602084013567ffffffffffffffff81111561492657600080fd5b6149328682870161457c565b925050604084013590509250925092565b60008060006060848603121561495857600080fd5b8335925060208401359150604084013567ffffffffffffffff81111561497d57600080fd5b6149898682870161457c565b9150509250925092565b600080600080600060a086880312156149ab57600080fd5b853594506020860135935060408601359250606086013567ffffffffffffffff8111156149d757600080fd5b6149e38882890161457c565b92505060808601356149f481614e89565b809150509295509295909350565b60008151808452614a1a816020860160208601614dc5565b601f01601f19169290920160200192915050565b60008251614a40818460208701614dc5565b9190910192915050565b600080835481600182811c915080831680614a6657607f831692505b6020808410821415614a8657634e487b7160e01b86526022600452602486fd5b818015614a9a5760018114614aab57614ad8565b60ff19861689528489019650614ad8565b60008a81526020902060005b86811015614ad05781548b820152908501908301614ab7565b505084890196505b509498975050505050505050565b6001600160a01b039384168152919092166020820152604081019190915260600190565b60208152600061426b6020830184614a02565b6020808252600c908201526b2737ba10383937b6b7ba32b960a11b604082015260600190565b60208082526013908201527239b2b73232b91034b9903737ba1037bbb732b960691b604082015260600190565b60208082526025908201527f43616c6c657220646f6573206e6f7420686176652061646d696e2070726976696040820152646c6567657360d81b606082015260800190565b60208082526025908201527f43616e206f6e6c792062652063616c6c65642062792061756374696f6e20437260408201526432b0ba37b960d91b606082015260800190565b60208082526012908201527110dbdb9d1c9858dd081a5cc81c185d5cd95960721b604082015260600190565b6020808252601f908201527f5265656e7472616e637947756172643a207265656e7472616e742063616c6c00604082015260600190565b85815284602082015283604082015260a060608201526000614c8260a0830185614a02565b905060018060a01b03831660808301529695505050505050565b60006101208b83528a6020840152896040840152886060840152806080840152614cc881840189614a02565b60ff9790971660a084015250506001600160a01b0393841660c082015291831660e08301529091166101009091015295945050505050565b604051601f8201601f1916810167ffffffffffffffff81118282101715614d2957614d29614e73565b604052919050565b600067ffffffffffffffff821115614d4b57614d4b614e73565b5060051b60200190565b60008219821115614d6857614d68614e47565b500190565b600082614d8a57634e487b7160e01b600052601260045260246000fd5b500490565b6000816000190483118215151615614da957614da9614e47565b500290565b600082821015614dc057614dc0614e47565b500390565b60005b83811015614de0578181015183820152602001614dc8565b8381111561415f5750506000910152565b600181811c90821680614e0557607f821691505b60208210811415614e2657634e487b7160e01b600052602260045260246000fd5b50919050565b6000600019821415614e4057614e40614e47565b5060010190565b634e487b7160e01b600052601160045260246000fd5b634e487b7160e01b600052603260045260246000fd5b634e487b7160e01b600052604160045260246000fd5b6001600160a01b038116811461329657600080fd5b801515811461329657600080fdfea2646970667358221220e8dbe68138944674ebc7f6611df92f7d7a693c5b1952e26783a0cd454b634d4a64736f6c63430008070033",
  "linkReferences": {},
  "deployedLinkReferences": {}
}